{
  "_format": "hh-sol-artifact-1",
  "contractName": "EnergyTradingMarket",
  "sourceName": "contracts/energy.sol",
  "abi": [
    {
      "inputs": [
        {
          "internalType": "address",
          "name": "_entToken",
          "type": "address"
        }
      ],
      "stateMutability": "nonpayable",
      "type": "constructor"
    },
    {
      "anonymous": false,
      "inputs": [
        {
          "indexed": false,
          "internalType": "uint256",
          "name": "orderId",
          "type": "uint256"
        }
      ],
      "name": "OrderCancelled",
      "type": "event"
    },
    {
      "anonymous": false,
      "inputs": [
        {
          "indexed": false,
          "internalType": "uint256",
          "name": "orderId",
          "type": "uint256"
        },
        {
          "indexed": false,
          "internalType": "address",
          "name": "seller",
          "type": "address"
        },
        {
          "indexed": false,
          "internalType": "uint256",
          "name": "amount",
          "type": "uint256"
        },
        {
          "indexed": false,
          "internalType": "uint256",
          "name": "price",
          "type": "uint256"
        },
        {
          "indexed": false,
          "internalType": "string",
          "name": "geohash",
          "type": "string"
        }
      ],
      "name": "OrderCreated",
      "type": "event"
    },
    {
      "anonymous": false,
      "inputs": [
        {
          "indexed": false,
          "internalType": "uint256",
          "name": "tradeId",
          "type": "uint256"
        },
        {
          "indexed": false,
          "internalType": "uint256",
          "name": "orderId",
          "type": "uint256"
        },
        {
          "indexed": false,
          "internalType": "address",
          "name": "buyer",
          "type": "address"
        },
        {
          "indexed": false,
          "internalType": "uint256",
          "name": "amount",
          "type": "uint256"
        },
        {
          "indexed": false,
          "internalType": "uint256",
          "name": "fee",
          "type": "uint256"
        }
      ],
      "name": "TradeExecuted",
      "type": "event"
    },
    {
      "inputs": [
        {
          "internalType": "uint256",
          "name": "amount",
          "type": "uint256"
        },
        {
          "internalType": "uint256",
          "name": "pricePerUnitInWei",
          "type": "uint256"
        },
        {
          "internalType": "string",
          "name": "geohash",
          "type": "string"
        }
      ],
      "name": "CreateSellOrder",
      "outputs": [],
      "stateMutability": "nonpayable",
      "type": "function"
    },
    {
      "inputs": [
        {
          "internalType": "uint256",
          "name": "orderId",
          "type": "uint256"
        }
      ],
      "name": "cancelSellOrder",
      "outputs": [],
      "stateMutability": "nonpayable",
      "type": "function"
    },
    {
      "inputs": [
        {
          "internalType": "address",
          "name": "",
          "type": "address"
        }
      ],
      "name": "energyBalance",
      "outputs": [
        {
          "internalType": "uint256",
          "name": "",
          "type": "uint256"
        }
      ],
      "stateMutability": "view",
      "type": "function"
    },
    {
      "inputs": [],
      "name": "entToken",
      "outputs": [
        {
          "internalType": "contract IERC20Decimals",
          "name": "",
          "type": "address"
        }
      ],
      "stateMutability": "view",
      "type": "function"
    },
    {
      "inputs": [
        {
          "internalType": "uint256",
          "name": "orderId",
          "type": "uint256"
        },
        {
          "internalType": "uint256",
          "name": "amount",
          "type": "uint256"
        },
        {
          "internalType": "uint256",
          "name": "fee",
          "type": "uint256"
        }
      ],
      "name": "executeTrade",
      "outputs": [],
      "stateMutability": "payable",
      "type": "function"
    },
    {
      "inputs": [],
      "name": "getListOfActiveSellOrdersForMe",
      "outputs": [
        {
          "components": [
            {
              "internalType": "address",
              "name": "seller",
              "type": "address"
            },
            {
              "internalType": "uint256",
              "name": "amount",
              "type": "uint256"
            },
            {
              "internalType": "uint256",
              "name": "remaining",
              "type": "uint256"
            },
            {
              "internalType": "uint256",
              "name": "pricePerUnit",
              "type": "uint256"
            },
            {
              "internalType": "bool",
              "name": "active",
              "type": "bool"
            },
            {
              "internalType": "bool",
              "name": "cancel",
              "type": "bool"
            },
            {
              "internalType": "string",
              "name": "geohash",
              "type": "string"
            }
          ],
          "internalType": "struct EnergyTradingMarket.SellOrder[]",
          "name": "",
          "type": "tuple[]"
        },
        {
          "internalType": "uint256[]",
          "name": "",
          "type": "uint256[]"
        }
      ],
      "stateMutability": "view",
      "type": "function"
    },
    {
      "inputs": [],
      "name": "getListOfSellOrders",
      "outputs": [
        {
          "components": [
            {
              "internalType": "address",
              "name": "seller",
              "type": "address"
            },
            {
              "internalType": "uint256",
              "name": "amount",
              "type": "uint256"
            },
            {
              "internalType": "uint256",
              "name": "remaining",
              "type": "uint256"
            },
            {
              "internalType": "uint256",
              "name": "pricePerUnit",
              "type": "uint256"
            },
            {
              "internalType": "bool",
              "name": "active",
              "type": "bool"
            },
            {
              "internalType": "bool",
              "name": "cancel",
              "type": "bool"
            },
            {
              "internalType": "string",
              "name": "geohash",
              "type": "string"
            }
          ],
          "internalType": "struct EnergyTradingMarket.SellOrder[]",
          "name": "",
          "type": "tuple[]"
        },
        {
          "internalType": "uint256[]",
          "name": "",
          "type": "uint256[]"
        }
      ],
      "stateMutability": "view",
      "type": "function"
    },
    {
      "inputs": [],
      "name": "lastDaySellOrderId",
      "outputs": [
        {
          "internalType": "uint256",
          "name": "",
          "type": "uint256"
        }
      ],
      "stateMutability": "view",
      "type": "function"
    },
    {
      "inputs": [],
      "name": "orderCounter",
      "outputs": [
        {
          "internalType": "uint256",
          "name": "",
          "type": "uint256"
        }
      ],
      "stateMutability": "view",
      "type": "function"
    },
    {
      "inputs": [],
      "name": "owner",
      "outputs": [
        {
          "internalType": "address",
          "name": "",
          "type": "address"
        }
      ],
      "stateMutability": "view",
      "type": "function"
    },
    {
      "inputs": [
        {
          "internalType": "uint256",
          "name": "",
          "type": "uint256"
        }
      ],
      "name": "sellOrders",
      "outputs": [
        {
          "internalType": "address",
          "name": "seller",
          "type": "address"
        },
        {
          "internalType": "uint256",
          "name": "amount",
          "type": "uint256"
        },
        {
          "internalType": "uint256",
          "name": "remaining",
          "type": "uint256"
        },
        {
          "internalType": "uint256",
          "name": "pricePerUnit",
          "type": "uint256"
        },
        {
          "internalType": "bool",
          "name": "active",
          "type": "bool"
        },
        {
          "internalType": "bool",
          "name": "cancel",
          "type": "bool"
        },
        {
          "internalType": "string",
          "name": "geohash",
          "type": "string"
        }
      ],
      "stateMutability": "view",
      "type": "function"
    },
    {
      "inputs": [
        {
          "internalType": "uint256",
          "name": "_lastDaySellOrderId",
          "type": "uint256"
        }
      ],
      "name": "setLastDaySellOrderId",
      "outputs": [],
      "stateMutability": "nonpayable",
      "type": "function"
    },
    {
      "inputs": [],
      "name": "tradeCounter",
      "outputs": [
        {
          "internalType": "uint256",
          "name": "",
          "type": "uint256"
        }
      ],
      "stateMutability": "view",
      "type": "function"
    },
    {
      "inputs": [
        {
          "internalType": "uint256",
          "name": "",
          "type": "uint256"
        }
      ],
      "name": "trades",
      "outputs": [
        {
          "internalType": "address",
          "name": "seller",
          "type": "address"
        },
        {
          "internalType": "address",
          "name": "buyer",
          "type": "address"
        },
        {
          "internalType": "uint256",
          "name": "orderId",
          "type": "uint256"
        },
        {
          "internalType": "uint256",
          "name": "amount",
          "type": "uint256"
        },
        {
          "internalType": "uint256",
          "name": "price",
          "type": "uint256"
        },
        {
          "internalType": "uint256",
          "name": "fee",
          "type": "uint256"
        }
      ],
      "stateMutability": "view",
      "type": "function"
    },
    {
      "inputs": [],
      "name": "withdrawFees",
      "outputs": [],
      "stateMutability": "nonpayable",
      "type": "function"
    }
  ],
  "bytecode": "0x60806040523480156200001157600080fd5b5060405162002f9f38038062002f9f833981810160405281019062000037919062000132565b600160008190555080600160006101000a81548173ffffffffffffffffffffffffffffffffffffffff021916908373ffffffffffffffffffffffffffffffffffffffff16021790555033600260006101000a81548173ffffffffffffffffffffffffffffffffffffffff021916908373ffffffffffffffffffffffffffffffffffffffff1602179055505062000164565b600080fd5b600073ffffffffffffffffffffffffffffffffffffffff82169050919050565b6000620000fa82620000cd565b9050919050565b6200010c81620000ed565b81146200011857600080fd5b50565b6000815190506200012c8162000101565b92915050565b6000602082840312156200014b576200014a620000c8565b5b60006200015b848285016200011b565b91505092915050565b612e2b80620001746000396000f3fe6080604052600436106100e85760003560e01c806363e9f6651161008a578063b789bf5211610059578063b789bf52146102cd578063c2ba32bb146102f8578063dd0c808214610324578063ed7653e71461034f576100e8565b806363e9f66514610220578063660d15b51461024c5780637a4900c4146102775780638da5cb5b146102a2576100e8565b806321ae6aa1116100c657806321ae6aa11461018157806335cd4a21146101aa578063476343ee146101c65780634a8393f3146101dd576100e8565b80630f5a2a95146100ed5780631a46e42a146101165780631e6c598e1461013f575b600080fd5b3480156100f957600080fd5b50610114600480360381019061010f9190611ae1565b61038c565b005b34801561012257600080fd5b5061013d60048036038101906101389190611ae1565b610426565b005b34801561014b57600080fd5b5061016660048036038101906101619190611ae1565b61068c565b60405161017896959493929190611b5e565b60405180910390f35b34801561018d57600080fd5b506101a860048036038101906101a39190611c24565b610708565b005b6101c460048036038101906101bf9190611c98565b6109b0565b005b3480156101d257600080fd5b506101db6110ef565b005b3480156101e957600080fd5b5061020460048036038101906101ff9190611ae1565b6111fa565b6040516102179796959493929190611d96565b60405180910390f35b34801561022c57600080fd5b506102356112fe565b604051610243929190612090565b60405180910390f35b34801561025857600080fd5b50610261611595565b60405161026e91906120c7565b60405180910390f35b34801561028357600080fd5b5061028c61159b565b60405161029991906120c7565b60405180910390f35b3480156102ae57600080fd5b506102b76115a1565b6040516102c491906120e2565b60405180910390f35b3480156102d957600080fd5b506102e26115c7565b6040516102ef91906120c7565b60405180910390f35b34801561030457600080fd5b5061030d6115cd565b60405161031b929190612090565b60405180910390f35b34801561033057600080fd5b506103396119b3565b604051610346919061215c565b60405180910390f35b34801561035b57600080fd5b50610376600480360381019061037191906121a3565b6119d9565b60405161038391906120c7565b60405180910390f35b600260009054906101000a900473ffffffffffffffffffffffffffffffffffffffff1673ffffffffffffffffffffffffffffffffffffffff163373ffffffffffffffffffffffffffffffffffffffff161461041c576040517f08c379a00000000000000000000000000000000000000000000000000000000081526004016104139061221c565b60405180910390fd5b8060058190555050565b803373ffffffffffffffffffffffffffffffffffffffff166007600083815260200190815260200160002060000160009054906101000a900473ffffffffffffffffffffffffffffffffffffffff1673ffffffffffffffffffffffffffffffffffffffff16146104cb576040517f08c379a00000000000000000000000000000000000000000000000000000000081526004016104c290612288565b60405180910390fd5b60006007600084815260200190815260200160002090508060040160009054906101000a900460ff16610533576040517f08c379a000000000000000000000000000000000000000000000000000000000815260040161052a906122f4565b60405180910390fd5b60008160040160006101000a81548160ff02191690831515021790555060018160040160016101000a81548160ff021916908315150217905550600160009054906101000a900473ffffffffffffffffffffffffffffffffffffffff1673ffffffffffffffffffffffffffffffffffffffff1663a9059cbb3383600201546040518363ffffffff1660e01b81526004016105ce929190612314565b6020604051808303816000875af11580156105ed573d6000803e3d6000fd5b505050506040513d601f19601f820116820180604052508101906106119190612369565b610650576040517f08c379a0000000000000000000000000000000000000000000000000000000008152600401610647906123e2565b60405180910390fd5b7f61b9399f2f0f32ca39ce8d7be32caed5ec22fe07a6daba3a467ed479ec6065828360405161067f91906120c7565b60405180910390a1505050565b60066020528060005260406000206000915090508060000160009054906101000a900473ffffffffffffffffffffffffffffffffffffffff16908060010160009054906101000a900473ffffffffffffffffffffffffffffffffffffffff16908060020154908060030154908060040154908060050154905086565b600160009054906101000a900473ffffffffffffffffffffffffffffffffffffffff1673ffffffffffffffffffffffffffffffffffffffff166323b872dd3330876040518463ffffffff1660e01b815260040161076793929190612402565b6020604051808303816000875af1158015610786573d6000803e3d6000fd5b505050506040513d601f19601f820116820180604052508101906107aa9190612369565b6107e9576040517f08c379a00000000000000000000000000000000000000000000000000000000081526004016107e090612485565b60405180910390fd5b6040518060e001604052803373ffffffffffffffffffffffffffffffffffffffff16815260200185815260200185815260200184815260200160011515815260200160001515815260200183838080601f016020809104026020016040519081016040528093929190818152602001838380828437600081840152601f19601f8201169050808301925050505050505081525060076000600454815260200190815260200160002060008201518160000160006101000a81548173ffffffffffffffffffffffffffffffffffffffff021916908373ffffffffffffffffffffffffffffffffffffffff16021790555060208201518160010155604082015181600201556060820151816003015560808201518160040160006101000a81548160ff02191690831515021790555060a08201518160040160016101000a81548160ff02191690831515021790555060c082015181600501908161094b91906126d6565b509050507f5780050d31719d0adb66d85c2b34dcb7f50fafdf3285b134714c48fd781f8831600454338686868660405161098a969594939291906127e4565b60405180910390a1600460008154809291906109a59061286f565b919050555050505050565b6109b86119f1565b60006007600085815260200190815260200160002090508060040160009054906101000a900460ff16610a20576040517f08c379a0000000000000000000000000000000000000000000000000000000008152600401610a17906122f4565b60405180910390fd5b60008311610a63576040517f08c379a0000000000000000000000000000000000000000000000000000000008152600401610a5a90612903565b60405180910390fd5b8060020154831115610aaa576040517f08c379a0000000000000000000000000000000000000000000000000000000008152600401610aa19061296f565b60405180910390fd5b60003390508160000160009054906101000a900473ffffffffffffffffffffffffffffffffffffffff1673ffffffffffffffffffffffffffffffffffffffff168173ffffffffffffffffffffffffffffffffffffffff1603610b41576040517f08c379a0000000000000000000000000000000000000000000000000000000008152600401610b38906129db565b60405180910390fd5b600083836003015486610b5491906129fb565b610b5e9190612a3d565b905080341015610ba3576040517f08c379a0000000000000000000000000000000000000000000000000000000008152600401610b9a90612abd565b60405180910390fd5b84836002016000828254610bb79190612add565b925050819055506000836002015403610be85760008360040160006101000a81548160ff0219169083151502179055505b600160009054906101000a900473ffffffffffffffffffffffffffffffffffffffff1673ffffffffffffffffffffffffffffffffffffffff1663a9059cbb83876040518363ffffffff1660e01b8152600401610c45929190612314565b6020604051808303816000875af1158015610c64573d6000803e3d6000fd5b505050506040513d601f19601f82011682018060405250810190610c889190612369565b610cc7576040517f08c379a0000000000000000000000000000000000000000000000000000000008152600401610cbe90612b5d565b60405180910390fd5b6040518060c001604052808460000160009054906101000a900473ffffffffffffffffffffffffffffffffffffffff1673ffffffffffffffffffffffffffffffffffffffff1681526020018373ffffffffffffffffffffffffffffffffffffffff168152602001878152602001868152602001846003015481526020018581525060066000600354815260200190815260200160002060008201518160000160006101000a81548173ffffffffffffffffffffffffffffffffffffffff021916908373ffffffffffffffffffffffffffffffffffffffff16021790555060208201518160010160006101000a81548173ffffffffffffffffffffffffffffffffffffffff021916908373ffffffffffffffffffffffffffffffffffffffff16021790555060408201518160020155606082015181600301556080820151816004015560a082015181600501559050507fb3256aee3253ea79bfe18f9f1f3c7a95a90686fb91c1b6ef7918572c0a77a3c260035487848888604051610e4f959493929190612b7d565b60405180910390a160036000815480929190610e6a9061286f565b919050555060008360000160009054906101000a900473ffffffffffffffffffffffffffffffffffffffff1673ffffffffffffffffffffffffffffffffffffffff16846003015487610ebc91906129fb565b604051610ec890612c01565b60006040518083038185875af1925050503d8060008114610f05576040519150601f19603f3d011682016040523d82523d6000602084013e610f0a565b606091505b5050905080610f4e576040517f08c379a0000000000000000000000000000000000000000000000000000000008152600401610f4590612c62565b60405180910390fd5b6000600260009054906101000a900473ffffffffffffffffffffffffffffffffffffffff1673ffffffffffffffffffffffffffffffffffffffff1686604051610f9690612c01565b60006040518083038185875af1925050503d8060008114610fd3576040519150601f19603f3d011682016040523d82523d6000602084013e610fd8565b606091505b505090508061101c576040517f08c379a000000000000000000000000000000000000000000000000000000000815260040161101390612cce565b60405180910390fd5b823411156110dd5760008473ffffffffffffffffffffffffffffffffffffffff1684346110499190612add565b60405161105590612c01565b60006040518083038185875af1925050503d8060008114611092576040519150601f19603f3d011682016040523d82523d6000602084013e611097565b606091505b50509050806110db576040517f08c379a00000000000000000000000000000000000000000000000000000000081526004016110d290612d3a565b60405180910390fd5b505b50505050506110ea611a40565b505050565b600260009054906101000a900473ffffffffffffffffffffffffffffffffffffffff1673ffffffffffffffffffffffffffffffffffffffff163373ffffffffffffffffffffffffffffffffffffffff161461117f576040517f08c379a00000000000000000000000000000000000000000000000000000000081526004016111769061221c565b60405180910390fd5b6111876119f1565b600260009054906101000a900473ffffffffffffffffffffffffffffffffffffffff1673ffffffffffffffffffffffffffffffffffffffff166108fc479081150290604051600060405180830381858888f193505050501580156111ef573d6000803e3d6000fd5b506111f8611a40565b565b60076020528060005260406000206000915090508060000160009054906101000a900473ffffffffffffffffffffffffffffffffffffffff16908060010154908060020154908060030154908060040160009054906101000a900460ff16908060040160019054906101000a900460ff169080600501805461127b90612503565b80601f01602080910402602001604051908101604052809291908181526020018280546112a790612503565b80156112f45780601f106112c9576101008083540402835291602001916112f4565b820191906000526020600020905b8154815290600101906020018083116112d757829003601f168201915b5050505050905087565b60608060006005546004546113139190612add565b905060008167ffffffffffffffff811115611331576113306124a5565b5b60405190808252806020026020018201604052801561136a57816020015b611357611a4a565b81526020019060019003908161134f5790505b50905060008267ffffffffffffffff811115611389576113886124a5565b5b6040519080825280602002602001820160405280156113b75781602001602082028036833780820191505090505b50905060008060055490505b60045481101561158657600760008281526020019081526020016000206040518060e00160405290816000820160009054906101000a900473ffffffffffffffffffffffffffffffffffffffff1673ffffffffffffffffffffffffffffffffffffffff1673ffffffffffffffffffffffffffffffffffffffff1681526020016001820154815260200160028201548152602001600382015481526020016004820160009054906101000a900460ff161515151581526020016004820160019054906101000a900460ff161515151581526020016005820180546114a590612503565b80601f01602080910402602001604051908101604052809291908181526020018280546114d190612503565b801561151e5780601f106114f35761010080835404028352916020019161151e565b820191906000526020600020905b81548152906001019060200180831161150157829003601f168201915b50505050508152505084838151811061153a57611539612d5a565b5b60200260200101819052508083838151811061155957611558612d5a565b5b60200260200101818152505081806115709061286f565b925050808061157e9061286f565b9150506113c3565b50828295509550505050509091565b60035481565b60055481565b600260009054906101000a900473ffffffffffffffffffffffffffffffffffffffff1681565b60045481565b60608060008060055490505b60045481101561169b576007600082815260200190815260200160002060040160009054906101000a900460ff16801561167457503373ffffffffffffffffffffffffffffffffffffffff166007600083815260200190815260200160002060000160009054906101000a900473ffffffffffffffffffffffffffffffffffffffff1673ffffffffffffffffffffffffffffffffffffffff16145b156116885781806116849061286f565b9250505b80806116939061286f565b9150506115d9565b5060008167ffffffffffffffff8111156116b8576116b76124a5565b5b6040519080825280602002602001820160405280156116f157816020015b6116de611a4a565b8152602001906001900390816116d65790505b50905060008267ffffffffffffffff8111156117105761170f6124a5565b5b60405190808252806020026020018201604052801561173e5781602001602082028036833780820191505090505b50905060008060055490505b6004548110156119a4576007600082815260200190815260200160002060040160009054906101000a900460ff1680156117e557503373ffffffffffffffffffffffffffffffffffffffff166007600083815260200190815260200160002060000160009054906101000a900473ffffffffffffffffffffffffffffffffffffffff1673ffffffffffffffffffffffffffffffffffffffff16145b1561199157600760008281526020019081526020016000206040518060e00160405290816000820160009054906101000a900473ffffffffffffffffffffffffffffffffffffffff1673ffffffffffffffffffffffffffffffffffffffff1673ffffffffffffffffffffffffffffffffffffffff1681526020016001820154815260200160028201548152602001600382015481526020016004820160009054906101000a900460ff161515151581526020016004820160019054906101000a900460ff161515151581526020016005820180546118c290612503565b80601f01602080910402602001604051908101604052809291908181526020018280546118ee90612503565b801561193b5780601f106119105761010080835404028352916020019161193b565b820191906000526020600020905b81548152906001019060200180831161191e57829003601f168201915b50505050508152505084838151811061195757611956612d5a565b5b60200260200101819052508083838151811061197657611975612d5a565b5b602002602001018181525050818061198d9061286f565b9250505b808061199c9061286f565b91505061174a565b50828295509550505050509091565b600160009054906101000a900473ffffffffffffffffffffffffffffffffffffffff1681565b60086020528060005260406000206000915090505481565b600260005403611a36576040517f08c379a0000000000000000000000000000000000000000000000000000000008152600401611a2d90612dd5565b60405180910390fd5b6002600081905550565b6001600081905550565b6040518060e00160405280600073ffffffffffffffffffffffffffffffffffffffff168152602001600081526020016000815260200160008152602001600015158152602001600015158152602001606081525090565b600080fd5b600080fd5b6000819050919050565b611abe81611aab565b8114611ac957600080fd5b50565b600081359050611adb81611ab5565b92915050565b600060208284031215611af757611af6611aa1565b5b6000611b0584828501611acc565b91505092915050565b600073ffffffffffffffffffffffffffffffffffffffff82169050919050565b6000611b3982611b0e565b9050919050565b611b4981611b2e565b82525050565b611b5881611aab565b82525050565b600060c082019050611b736000830189611b40565b611b806020830188611b40565b611b8d6040830187611b4f565b611b9a6060830186611b4f565b611ba76080830185611b4f565b611bb460a0830184611b4f565b979650505050505050565b600080fd5b600080fd5b600080fd5b60008083601f840112611be457611be3611bbf565b5b8235905067ffffffffffffffff811115611c0157611c00611bc4565b5b602083019150836001820283011115611c1d57611c1c611bc9565b5b9250929050565b60008060008060608587031215611c3e57611c3d611aa1565b5b6000611c4c87828801611acc565b9450506020611c5d87828801611acc565b935050604085013567ffffffffffffffff811115611c7e57611c7d611aa6565b5b611c8a87828801611bce565b925092505092959194509250565b600080600060608486031215611cb157611cb0611aa1565b5b6000611cbf86828701611acc565b9350506020611cd086828701611acc565b9250506040611ce186828701611acc565b9150509250925092565b60008115159050919050565b611d0081611ceb565b82525050565b600081519050919050565b600082825260208201905092915050565b60005b83811015611d40578082015181840152602081019050611d25565b60008484015250505050565b6000601f19601f8301169050919050565b6000611d6882611d06565b611d728185611d11565b9350611d82818560208601611d22565b611d8b81611d4c565b840191505092915050565b600060e082019050611dab600083018a611b40565b611db86020830189611b4f565b611dc56040830188611b4f565b611dd26060830187611b4f565b611ddf6080830186611cf7565b611dec60a0830185611cf7565b81810360c0830152611dfe8184611d5d565b905098975050505050505050565b600081519050919050565b600082825260208201905092915050565b6000819050602082019050919050565b611e4181611b2e565b82525050565b611e5081611aab565b82525050565b611e5f81611ceb565b82525050565b600082825260208201905092915050565b6000611e8182611d06565b611e8b8185611e65565b9350611e9b818560208601611d22565b611ea481611d4c565b840191505092915050565b600060e083016000830151611ec76000860182611e38565b506020830151611eda6020860182611e47565b506040830151611eed6040860182611e47565b506060830151611f006060860182611e47565b506080830151611f136080860182611e56565b5060a0830151611f2660a0860182611e56565b5060c083015184820360c0860152611f3e8282611e76565b9150508091505092915050565b6000611f578383611eaf565b905092915050565b6000602082019050919050565b6000611f7782611e0c565b611f818185611e17565b935083602082028501611f9385611e28565b8060005b85811015611fcf5784840389528151611fb08582611f4b565b9450611fbb83611f5f565b925060208a01995050600181019050611f97565b50829750879550505050505092915050565b600081519050919050565b600082825260208201905092915050565b6000819050602082019050919050565b60006120198383611e47565b60208301905092915050565b6000602082019050919050565b600061203d82611fe1565b6120478185611fec565b935061205283611ffd565b8060005b8381101561208357815161206a888261200d565b975061207583612025565b925050600181019050612056565b5085935050505092915050565b600060408201905081810360008301526120aa8185611f6c565b905081810360208301526120be8184612032565b90509392505050565b60006020820190506120dc6000830184611b4f565b92915050565b60006020820190506120f76000830184611b40565b92915050565b6000819050919050565b600061212261211d61211884611b0e565b6120fd565b611b0e565b9050919050565b600061213482612107565b9050919050565b600061214682612129565b9050919050565b6121568161213b565b82525050565b6000602082019050612171600083018461214d565b92915050565b61218081611b2e565b811461218b57600080fd5b50565b60008135905061219d81612177565b92915050565b6000602082840312156121b9576121b8611aa1565b5b60006121c78482850161218e565b91505092915050565b7f4e6f74206f776e65720000000000000000000000000000000000000000000000600082015250565b6000612206600983611d11565b9150612211826121d0565b602082019050919050565b60006020820190508181036000830152612235816121f9565b9050919050565b7f4e6f74206f72646572206f776e65720000000000000000000000000000000000600082015250565b6000612272600f83611d11565b915061227d8261223c565b602082019050919050565b600060208201905081810360008301526122a181612265565b9050919050565b7f4f72646572206e6f742061637469766500000000000000000000000000000000600082015250565b60006122de601083611d11565b91506122e9826122a8565b602082019050919050565b6000602082019050818103600083015261230d816122d1565b9050919050565b60006040820190506123296000830185611b40565b6123366020830184611b4f565b9392505050565b61234681611ceb565b811461235157600080fd5b50565b6000815190506123638161233d565b92915050565b60006020828403121561237f5761237e611aa1565b5b600061238d84828501612354565b91505092915050565b7f526566756e64206661696c656400000000000000000000000000000000000000600082015250565b60006123cc600d83611d11565b91506123d782612396565b602082019050919050565b600060208201905081810360008301526123fb816123bf565b9050919050565b60006060820190506124176000830186611b40565b6124246020830185611b40565b6124316040830184611b4f565b949350505050565b7f5472616e73666572206661696c65640000000000000000000000000000000000600082015250565b600061246f600f83611d11565b915061247a82612439565b602082019050919050565b6000602082019050818103600083015261249e81612462565b9050919050565b7f4e487b7100000000000000000000000000000000000000000000000000000000600052604160045260246000fd5b7f4e487b7100000000000000000000000000000000000000000000000000000000600052602260045260246000fd5b6000600282049050600182168061251b57607f821691505b60208210810361252e5761252d6124d4565b5b50919050565b60008190508160005260206000209050919050565b60006020601f8301049050919050565b600082821b905092915050565b6000600883026125967fffffffffffffffffffffffffffffffffffffffffffffffffffffffffffffffff82612559565b6125a08683612559565b95508019841693508086168417925050509392505050565b60006125d36125ce6125c984611aab565b6120fd565b611aab565b9050919050565b6000819050919050565b6125ed836125b8565b6126016125f9826125da565b848454612566565b825550505050565b600090565b612616612609565b6126218184846125e4565b505050565b5b818110156126455761263a60008261260e565b600181019050612627565b5050565b601f82111561268a5761265b81612534565b61266484612549565b81016020851015612673578190505b61268761267f85612549565b830182612626565b50505b505050565b600082821c905092915050565b60006126ad6000198460080261268f565b1980831691505092915050565b60006126c6838361269c565b9150826002028217905092915050565b6126df82611d06565b67ffffffffffffffff8111156126f8576126f76124a5565b5b6127028254612503565b61270d828285612649565b600060209050601f831160018114612740576000841561272e578287015190505b61273885826126ba565b8655506127a0565b601f19841661274e86612534565b60005b8281101561277657848901518255600182019150602085019450602081019050612751565b86831015612793578489015161278f601f89168261269c565b8355505b6001600288020188555050505b505050505050565b82818337600083830152505050565b60006127c38385611d11565b93506127d08385846127a8565b6127d983611d4c565b840190509392505050565b600060a0820190506127f96000830189611b4f565b6128066020830188611b40565b6128136040830187611b4f565b6128206060830186611b4f565b81810360808301526128338184866127b7565b9050979650505050505050565b7f4e487b7100000000000000000000000000000000000000000000000000000000600052601160045260246000fd5b600061287a82611aab565b91507fffffffffffffffffffffffffffffffffffffffffffffffffffffffffffffffff82036128ac576128ab612840565b5b600182019050919050565b7f416d6f756e74206d75737420626520706f736974697665000000000000000000600082015250565b60006128ed601783611d11565b91506128f8826128b7565b602082019050919050565b6000602082019050818103600083015261291c816128e0565b9050919050565b7f416d6f756e742065786365656473206f726465722072656d61696e696e670000600082015250565b6000612959601e83611d11565b915061296482612923565b602082019050919050565b600060208201905081810360008301526129888161294c565b9050919050565b7f43616e6e6f74206275792066726f6d2073656c66000000000000000000000000600082015250565b60006129c5601483611d11565b91506129d08261298f565b602082019050919050565b600060208201905081810360008301526129f4816129b8565b9050919050565b6000612a0682611aab565b9150612a1183611aab565b9250828202612a1f81611aab565b91508282048414831517612a3657612a35612840565b5b5092915050565b6000612a4882611aab565b9150612a5383611aab565b9250828201905080821115612a6b57612a6a612840565b5b92915050565b7f496e73756666696369656e74205745492073656e740000000000000000000000600082015250565b6000612aa7601583611d11565b9150612ab282612a71565b602082019050919050565b60006020820190508181036000830152612ad681612a9a565b9050919050565b6000612ae882611aab565b9150612af383611aab565b9250828203905081811115612b0b57612b0a612840565b5b92915050565b7f546f6b656e207472616e73666572206661696c65640000000000000000000000600082015250565b6000612b47601583611d11565b9150612b5282612b11565b602082019050919050565b60006020820190508181036000830152612b7681612b3a565b9050919050565b600060a082019050612b926000830188611b4f565b612b9f6020830187611b4f565b612bac6040830186611b40565b612bb96060830185611b4f565b612bc66080830184611b4f565b9695505050505050565b600081905092915050565b50565b6000612beb600083612bd0565b9150612bf682612bdb565b600082019050919050565b6000612c0c82612bde565b9150819050919050565b7f455448207472616e7366657220746f2073656c6c6572206661696c6564000000600082015250565b6000612c4c601d83611d11565b9150612c5782612c16565b602082019050919050565b60006020820190508181036000830152612c7b81612c3f565b9050919050565b7f455448207472616e7366657220746f206f776e6572206661696c656400000000600082015250565b6000612cb8601c83611d11565b9150612cc382612c82565b602082019050919050565b60006020820190508181036000830152612ce781612cab565b9050919050565b7f45544820726566756e64206661696c6564000000000000000000000000000000600082015250565b6000612d24601183611d11565b9150612d2f82612cee565b602082019050919050565b60006020820190508181036000830152612d5381612d17565b9050919050565b7f4e487b7100000000000000000000000000000000000000000000000000000000600052603260045260246000fd5b7f5265656e7472616e637947756172643a207265656e7472616e742063616c6c00600082015250565b6000612dbf601f83611d11565b9150612dca82612d89565b602082019050919050565b60006020820190508181036000830152612dee81612db2565b905091905056fea264697066735822122029c7c95c7e4f97550a88f5fb1e2e4fee7c316910bbefe1fbb89321cb8e8a233264736f6c63430008130033",
  "linkReferences": {},
  "deployedLinkReferences": {}
}