{
  "_format": "hh-sol-artifact-1",
  "contractName": "AuctionDApp",
  "sourceName": "contracts/CarbonMarketplace.sol",
  "abi": [
    {
      "inputs": [
        {
          "internalType": "address",
          "name": "_cctokenAddress",
          "type": "address"
        },
        {
          "internalType": "uint256",
          "name": "_minBidPricePerToken",
          "type": "uint256"
        }
      ],
      "stateMutability": "nonpayable",
      "type": "constructor"
    },
    {
      "anonymous": false,
      "inputs": [
        {
          "indexed": true,
          "internalType": "uint256",
          "name": "auctionId",
          "type": "uint256"
        }
      ],
      "name": "AuctionCancelled",
      "type": "event"
    },
    {
      "anonymous": false,
      "inputs": [
        {
          "indexed": true,
          "internalType": "uint256",
          "name": "auctionId",
          "type": "uint256"
        },
        {
          "indexed": true,
          "internalType": "address",
          "name": "seller",
          "type": "address"
        },
        {
          "indexed": false,
          "internalType": "uint256",
          "name": "tokenAmount",
          "type": "uint256"
        },
        {
          "indexed": false,
          "internalType": "uint256",
          "name": "basePrice",
          "type": "uint256"
        },
        {
          "indexed": false,
          "internalType": "uint256",
          "name": "endTime",
          "type": "uint256"
        }
      ],
      "name": "AuctionCreated",
      "type": "event"
    },
    {
      "anonymous": false,
      "inputs": [
        {
          "indexed": true,
          "internalType": "uint256",
          "name": "auctionId",
          "type": "uint256"
        },
        {
          "indexed": true,
          "internalType": "address",
          "name": "seller",
          "type": "address"
        },
        {
          "indexed": true,
          "internalType": "address",
          "name": "winner",
          "type": "address"
        },
        {
          "indexed": false,
          "internalType": "uint256",
          "name": "amount",
          "type": "uint256"
        }
      ],
      "name": "AuctionFinalized",
      "type": "event"
    },
    {
      "anonymous": false,
      "inputs": [
        {
          "indexed": true,
          "internalType": "uint256",
          "name": "auctionId",
          "type": "uint256"
        },
        {
          "indexed": true,
          "internalType": "address",
          "name": "bidder",
          "type": "address"
        },
        {
          "indexed": false,
          "internalType": "uint256",
          "name": "bidAmount",
          "type": "uint256"
        }
      ],
      "name": "BidPlaced",
      "type": "event"
    },
    {
      "anonymous": false,
      "inputs": [
        {
          "indexed": true,
          "internalType": "address",
          "name": "previousOwner",
          "type": "address"
        },
        {
          "indexed": true,
          "internalType": "address",
          "name": "newOwner",
          "type": "address"
        }
      ],
      "name": "OwnershipTransferred",
      "type": "event"
    },
    {
      "inputs": [],
      "name": "auctionIdCounter",
      "outputs": [
        {
          "internalType": "uint256",
          "name": "",
          "type": "uint256"
        }
      ],
      "stateMutability": "view",
      "type": "function"
    },
    {
      "inputs": [
        {
          "internalType": "uint256",
          "name": "",
          "type": "uint256"
        }
      ],
      "name": "auctions",
      "outputs": [
        {
          "internalType": "address",
          "name": "seller",
          "type": "address"
        },
        {
          "internalType": "uint256",
          "name": "tokenAmount",
          "type": "uint256"
        },
        {
          "internalType": "uint256",
          "name": "basePrice",
          "type": "uint256"
        },
        {
          "internalType": "uint256",
          "name": "startTime",
          "type": "uint256"
        },
        {
          "internalType": "uint256",
          "name": "endTime",
          "type": "uint256"
        },
        {
          "internalType": "address",
          "name": "highestBidder",
          "type": "address"
        },
        {
          "internalType": "uint256",
          "name": "highestBid",
          "type": "uint256"
        },
        {
          "internalType": "bool",
          "name": "isFinalized",
          "type": "bool"
        }
      ],
      "stateMutability": "view",
      "type": "function"
    },
    {
      "inputs": [
        {
          "internalType": "uint256",
          "name": "_auctionId",
          "type": "uint256"
        }
      ],
      "name": "cancelAuction",
      "outputs": [],
      "stateMutability": "nonpayable",
      "type": "function"
    },
    {
      "inputs": [],
      "name": "cctoken",
      "outputs": [
        {
          "internalType": "contract CCToken",
          "name": "",
          "type": "address"
        }
      ],
      "stateMutability": "view",
      "type": "function"
    },
    {
      "inputs": [
        {
          "internalType": "uint256",
          "name": "_auctionId",
          "type": "uint256"
        }
      ],
      "name": "checkAndFinalizeExpiredAuctions",
      "outputs": [],
      "stateMutability": "nonpayable",
      "type": "function"
    },
    {
      "inputs": [
        {
          "internalType": "uint256",
          "name": "_tokenAmount",
          "type": "uint256"
        },
        {
          "internalType": "uint256",
          "name": "_basePrice",
          "type": "uint256"
        },
        {
          "internalType": "uint256",
          "name": "_duration",
          "type": "uint256"
        }
      ],
      "name": "createAuction",
      "outputs": [],
      "stateMutability": "nonpayable",
      "type": "function"
    },
    {
      "inputs": [
        {
          "internalType": "uint256",
          "name": "_auctionId",
          "type": "uint256"
        }
      ],
      "name": "finalizeAuction",
      "outputs": [],
      "stateMutability": "nonpayable",
      "type": "function"
    },
    {
      "inputs": [],
      "name": "getActiveAuctions",
      "outputs": [
        {
          "internalType": "uint256[]",
          "name": "",
          "type": "uint256[]"
        },
        {
          "components": [
            {
              "internalType": "address",
              "name": "seller",
              "type": "address"
            },
            {
              "internalType": "uint256",
              "name": "tokenAmount",
              "type": "uint256"
            },
            {
              "internalType": "uint256",
              "name": "basePrice",
              "type": "uint256"
            },
            {
              "internalType": "uint256",
              "name": "startTime",
              "type": "uint256"
            },
            {
              "internalType": "uint256",
              "name": "endTime",
              "type": "uint256"
            },
            {
              "internalType": "address",
              "name": "highestBidder",
              "type": "address"
            },
            {
              "internalType": "uint256",
              "name": "highestBid",
              "type": "uint256"
            },
            {
              "internalType": "bool",
              "name": "isFinalized",
              "type": "bool"
            }
          ],
          "internalType": "struct AuctionDApp.Auction[]",
          "name": "",
          "type": "tuple[]"
        }
      ],
      "stateMutability": "view",
      "type": "function"
    },
    {
      "inputs": [
        {
          "internalType": "address",
          "name": "bidder",
          "type": "address"
        }
      ],
      "name": "getAuctionsByHighestBidder",
      "outputs": [
        {
          "internalType": "uint256[]",
          "name": "",
          "type": "uint256[]"
        },
        {
          "components": [
            {
              "internalType": "address",
              "name": "seller",
              "type": "address"
            },
            {
              "internalType": "uint256",
              "name": "tokenAmount",
              "type": "uint256"
            },
            {
              "internalType": "uint256",
              "name": "basePrice",
              "type": "uint256"
            },
            {
              "internalType": "uint256",
              "name": "startTime",
              "type": "uint256"
            },
            {
              "internalType": "uint256",
              "name": "endTime",
              "type": "uint256"
            },
            {
              "internalType": "address",
              "name": "highestBidder",
              "type": "address"
            },
            {
              "internalType": "uint256",
              "name": "highestBid",
              "type": "uint256"
            },
            {
              "internalType": "bool",
              "name": "isFinalized",
              "type": "bool"
            }
          ],
          "internalType": "struct AuctionDApp.Auction[]",
          "name": "",
          "type": "tuple[]"
        }
      ],
      "stateMutability": "view",
      "type": "function"
    },
    {
      "inputs": [
        {
          "internalType": "address",
          "name": "seller",
          "type": "address"
        }
      ],
      "name": "getAuctionsBySeller",
      "outputs": [
        {
          "internalType": "uint256[]",
          "name": "",
          "type": "uint256[]"
        },
        {
          "components": [
            {
              "internalType": "address",
              "name": "seller",
              "type": "address"
            },
            {
              "internalType": "uint256",
              "name": "tokenAmount",
              "type": "uint256"
            },
            {
              "internalType": "uint256",
              "name": "basePrice",
              "type": "uint256"
            },
            {
              "internalType": "uint256",
              "name": "startTime",
              "type": "uint256"
            },
            {
              "internalType": "uint256",
              "name": "endTime",
              "type": "uint256"
            },
            {
              "internalType": "address",
              "name": "highestBidder",
              "type": "address"
            },
            {
              "internalType": "uint256",
              "name": "highestBid",
              "type": "uint256"
            },
            {
              "internalType": "bool",
              "name": "isFinalized",
              "type": "bool"
            }
          ],
          "internalType": "struct AuctionDApp.Auction[]",
          "name": "",
          "type": "tuple[]"
        }
      ],
      "stateMutability": "view",
      "type": "function"
    },
    {
      "inputs": [],
      "name": "minBidPricePerToken",
      "outputs": [
        {
          "internalType": "uint256",
          "name": "",
          "type": "uint256"
        }
      ],
      "stateMutability": "view",
      "type": "function"
    },
    {
      "inputs": [],
      "name": "owner",
      "outputs": [
        {
          "internalType": "address",
          "name": "",
          "type": "address"
        }
      ],
      "stateMutability": "view",
      "type": "function"
    },
    {
      "inputs": [
        {
          "internalType": "uint256",
          "name": "_auctionId",
          "type": "uint256"
        }
      ],
      "name": "placeBid",
      "outputs": [],
      "stateMutability": "payable",
      "type": "function"
    },
    {
      "inputs": [],
      "name": "renounceOwnership",
      "outputs": [],
      "stateMutability": "nonpayable",
      "type": "function"
    },
    {
      "inputs": [
        {
          "internalType": "address",
          "name": "newOwner",
          "type": "address"
        }
      ],
      "name": "transferOwnership",
      "outputs": [],
      "stateMutability": "nonpayable",
      "type": "function"
    }
  ],
  "bytecode": "0x60806040523480156200001157600080fd5b506040516200350138038062003501833981810160405281019062000037919062000218565b620000576200004b620000a760201b60201c565b620000af60201b60201c565b81600160006101000a81548173ffffffffffffffffffffffffffffffffffffffff021916908373ffffffffffffffffffffffffffffffffffffffff1602179055508060028190555050506200025f565b600033905090565b60008060009054906101000a900473ffffffffffffffffffffffffffffffffffffffff169050816000806101000a81548173ffffffffffffffffffffffffffffffffffffffff021916908373ffffffffffffffffffffffffffffffffffffffff1602179055508173ffffffffffffffffffffffffffffffffffffffff168173ffffffffffffffffffffffffffffffffffffffff167f8be0079c531659141344cd1fd0a4f28419497f9722a3daafe3b4186f6b6457e060405160405180910390a35050565b600080fd5b600073ffffffffffffffffffffffffffffffffffffffff82169050919050565b6000620001a58262000178565b9050919050565b620001b78162000198565b8114620001c357600080fd5b50565b600081519050620001d781620001ac565b92915050565b6000819050919050565b620001f281620001dd565b8114620001fe57600080fd5b50565b6000815190506200021281620001e7565b92915050565b6000806040838503121562000232576200023162000173565b5b60006200024285828601620001c6565b9250506020620002558582860162000201565b9150509250929050565b613292806200026f6000396000f3fe6080604052600436106100e85760003560e01c806396b5a7551161008a578063de0794ef11610059578063de0794ef146102dd578063e808386314610308578063efba0ae514610331578063f2fde38b1461035c576100e8565b806396b5a755146102435780639979ef451461026c578063cda4beef14610288578063cf44b5d5146102b1576100e8565b806375e90561116100c657806375e9056114610171578063770608eb146101af5780637a128a9c146101da5780638da5cb5b14610218576100e8565b80632185ca04146100ed578063571a26a014610116578063715018a61461015a575b600080fd5b3480156100f957600080fd5b50610114600480360381019061010f9190612413565b610385565b005b34801561012257600080fd5b5061013d60048036038101906101389190612413565b61077e565b6040516101519897969594939291906124ab565b60405180910390f35b34801561016657600080fd5b5061016f610813565b005b34801561017d57600080fd5b5061019860048036038101906101939190612555565b610827565b6040516101a69291906127b0565b60405180910390f35b3480156101bb57600080fd5b506101c4610c0e565b6040516101d19190612846565b60405180910390f35b3480156101e657600080fd5b5061020160048036038101906101fc9190612555565b610c34565b60405161020f9291906127b0565b60405180910390f35b34801561022457600080fd5b5061022d61101b565b60405161023a9190612861565b60405180910390f35b34801561024f57600080fd5b5061026a60048036038101906102659190612413565b611044565b005b61028660048036038101906102819190612413565b61137c565b005b34801561029457600080fd5b506102af60048036038101906102aa919061287c565b611698565b005b3480156102bd57600080fd5b506102c6611a3b565b6040516102d49291906127b0565b60405180910390f35b3480156102e957600080fd5b506102f2611d47565b6040516102ff91906128cf565b60405180910390f35b34801561031457600080fd5b5061032f600480360381019061032a9190612413565b611d4d565b005b34801561033d57600080fd5b50610346612192565b60405161035391906128cf565b60405180910390f35b34801561036857600080fd5b50610383600480360381019061037e9190612555565b612198565b005b6000600460008381526020019081526020016000209050806004015442116103e2576040517f08c379a00000000000000000000000000000000000000000000000000000000081526004016103d990612947565b60405180910390fd5b8060070160009054906101000a900460ff1615610434576040517f08c379a000000000000000000000000000000000000000000000000000000000815260040161042b906129b3565b60405180910390fd5b60018160070160006101000a81548160ff021916908315150217905550600073ffffffffffffffffffffffffffffffffffffffff168160050160009054906101000a900473ffffffffffffffffffffffffffffffffffffffff1673ffffffffffffffffffffffffffffffffffffffff16146105fe578060000160009054906101000a900473ffffffffffffffffffffffffffffffffffffffff1673ffffffffffffffffffffffffffffffffffffffff166108fc6064606284600601546104fa9190612a02565b6105049190612a73565b9081150290604051600060405180830381858888f1935050505015801561052f573d6000803e3d6000fd5b50600160009054906101000a900473ffffffffffffffffffffffffffffffffffffffff1673ffffffffffffffffffffffffffffffffffffffff1663a9059cbb8260050160009054906101000a900473ffffffffffffffffffffffffffffffffffffffff1683600101546040518363ffffffff1660e01b81526004016105b5929190612aa4565b6020604051808303816000875af11580156105d4573d6000803e3d6000fd5b505050506040513d601f19601f820116820180604052508101906105f89190612af9565b506106c8565b600160009054906101000a900473ffffffffffffffffffffffffffffffffffffffff1673ffffffffffffffffffffffffffffffffffffffff1663a9059cbb8260000160009054906101000a900473ffffffffffffffffffffffffffffffffffffffff1683600101546040518363ffffffff1660e01b8152600401610683929190612aa4565b6020604051808303816000875af11580156106a2573d6000803e3d6000fd5b505050506040513d601f19601f820116820180604052508101906106c69190612af9565b505b8060050160009054906101000a900473ffffffffffffffffffffffffffffffffffffffff1673ffffffffffffffffffffffffffffffffffffffff168160000160009054906101000a900473ffffffffffffffffffffffffffffffffffffffff1673ffffffffffffffffffffffffffffffffffffffff16837f248b3e7715901cde8605780ccb8b9208d44cb7d923fc3de487406ea74cff6acf846006015460405161077291906128cf565b60405180910390a45050565b60046020528060005260406000206000915090508060000160009054906101000a900473ffffffffffffffffffffffffffffffffffffffff16908060010154908060020154908060030154908060040154908060050160009054906101000a900473ffffffffffffffffffffffffffffffffffffffff16908060060154908060070160009054906101000a900460ff16905088565b61081b61221b565b6108256000612299565b565b606080600080600190505b6003548111610916578473ffffffffffffffffffffffffffffffffffffffff166004600083815260200190815260200160002060000160009054906101000a900473ffffffffffffffffffffffffffffffffffffffff1673ffffffffffffffffffffffffffffffffffffffff161480156108c2575060046000828152602001908152602001600020600401544211155b80156108ef57506004600082815260200190815260200160002060070160009054906101000a900460ff16155b156109035781806108ff90612b26565b9250505b808061090e90612b26565b915050610832565b5060008167ffffffffffffffff81111561093357610932612b6e565b5b6040519080825280602002602001820160405280156109615781602001602082028036833780820191505090505b50905060008267ffffffffffffffff8111156109805761097f612b6e565b5b6040519080825280602002602001820160405280156109b957816020015b6109a6612365565b81526020019060019003908161099e5790505b509050600080600190505b6003548111610bfe578773ffffffffffffffffffffffffffffffffffffffff166004600083815260200190815260200160002060000160009054906101000a900473ffffffffffffffffffffffffffffffffffffffff1673ffffffffffffffffffffffffffffffffffffffff16148015610a54575060046000828152602001908152602001600020600401544211155b8015610a8157506004600082815260200190815260200160002060070160009054906101000a900460ff16155b15610beb5780848381518110610a9a57610a99612b9d565b5b60200260200101818152505060046000828152602001908152602001600020604051806101000160405290816000820160009054906101000a900473ffffffffffffffffffffffffffffffffffffffff1673ffffffffffffffffffffffffffffffffffffffff1673ffffffffffffffffffffffffffffffffffffffff168152602001600182015481526020016002820154815260200160038201548152602001600482015481526020016005820160009054906101000a900473ffffffffffffffffffffffffffffffffffffffff1673ffffffffffffffffffffffffffffffffffffffff1673ffffffffffffffffffffffffffffffffffffffff168152602001600682015481526020016007820160009054906101000a900460ff161515151581525050838381518110610bd157610bd0612b9d565b5b60200260200101819052508180610be790612b26565b9250505b8080610bf690612b26565b9150506109c4565b5082829550955050505050915091565b600160009054906101000a900473ffffffffffffffffffffffffffffffffffffffff1681565b606080600080600190505b6003548111610d23578473ffffffffffffffffffffffffffffffffffffffff166004600083815260200190815260200160002060050160009054906101000a900473ffffffffffffffffffffffffffffffffffffffff1673ffffffffffffffffffffffffffffffffffffffff16148015610ccf575060046000828152602001908152602001600020600401544211155b8015610cfc57506004600082815260200190815260200160002060070160009054906101000a900460ff16155b15610d10578180610d0c90612b26565b9250505b8080610d1b90612b26565b915050610c3f565b5060008167ffffffffffffffff811115610d4057610d3f612b6e565b5b604051908082528060200260200182016040528015610d6e5781602001602082028036833780820191505090505b50905060008267ffffffffffffffff811115610d8d57610d8c612b6e565b5b604051908082528060200260200182016040528015610dc657816020015b610db3612365565b815260200190600190039081610dab5790505b509050600080600190505b600354811161100b578773ffffffffffffffffffffffffffffffffffffffff166004600083815260200190815260200160002060050160009054906101000a900473ffffffffffffffffffffffffffffffffffffffff1673ffffffffffffffffffffffffffffffffffffffff16148015610e61575060046000828152602001908152602001600020600401544211155b8015610e8e57506004600082815260200190815260200160002060070160009054906101000a900460ff16155b15610ff85780848381518110610ea757610ea6612b9d565b5b60200260200101818152505060046000828152602001908152602001600020604051806101000160405290816000820160009054906101000a900473ffffffffffffffffffffffffffffffffffffffff1673ffffffffffffffffffffffffffffffffffffffff1673ffffffffffffffffffffffffffffffffffffffff168152602001600182015481526020016002820154815260200160038201548152602001600482015481526020016005820160009054906101000a900473ffffffffffffffffffffffffffffffffffffffff1673ffffffffffffffffffffffffffffffffffffffff1673ffffffffffffffffffffffffffffffffffffffff168152602001600682015481526020016007820160009054906101000a900460ff161515151581525050838381518110610fde57610fdd612b9d565b5b60200260200101819052508180610ff490612b26565b9250505b808061100390612b26565b915050610dd1565b5082829550955050505050915091565b60008060009054906101000a900473ffffffffffffffffffffffffffffffffffffffff16905090565b60006004600083815260200190815260200160002090508060000160009054906101000a900473ffffffffffffffffffffffffffffffffffffffff1673ffffffffffffffffffffffffffffffffffffffff163373ffffffffffffffffffffffffffffffffffffffff16146110ed576040517f08c379a00000000000000000000000000000000000000000000000000000000081526004016110e490612c18565b60405180910390fd5b80600401544211611133576040517f08c379a000000000000000000000000000000000000000000000000000000000815260040161112a90612947565b60405180910390fd5b8060070160009054906101000a900460ff1615611185576040517f08c379a000000000000000000000000000000000000000000000000000000000815260040161117c906129b3565b60405180910390fd5b60018160070160006101000a81548160ff021916908315150217905550600160009054906101000a900473ffffffffffffffffffffffffffffffffffffffff1673ffffffffffffffffffffffffffffffffffffffff1663a9059cbb8260000160009054906101000a900473ffffffffffffffffffffffffffffffffffffffff1683600101546040518363ffffffff1660e01b8152600401611227929190612aa4565b6020604051808303816000875af1158015611246573d6000803e3d6000fd5b505050506040513d601f19601f8201168201806040525081019061126a9190612af9565b50600073ffffffffffffffffffffffffffffffffffffffff168160050160009054906101000a900473ffffffffffffffffffffffffffffffffffffffff1673ffffffffffffffffffffffffffffffffffffffff161461134b578060050160009054906101000a900473ffffffffffffffffffffffffffffffffffffffff1673ffffffffffffffffffffffffffffffffffffffff166108fc6064606584600601546113149190612a02565b61131e9190612a73565b9081150290604051600060405180830381858888f19350505050158015611349573d6000803e3d6000fd5b505b817f2809c7e17bf978fbc7194c0a694b638c4215e9140cacc6c38ca36010b45697df60405160405180910390a25050565b600060046000838152602001908152602001600020905080600401544211156113da576040517f08c379a00000000000000000000000000000000000000000000000000000000081526004016113d190612c84565b60405180910390fd5b8060070160009054906101000a900460ff161561142c576040517f08c379a000000000000000000000000000000000000000000000000000000000815260040161142390612cf0565b60405180910390fd5b60646065826002015461143f9190612a02565b6114499190612a73565b34101561148b576040517f08c379a000000000000000000000000000000000000000000000000000000000815260040161148290612d5c565b60405180910390fd5b60646065826006015461149e9190612a02565b6114a89190612a73565b34116114e9576040517f08c379a00000000000000000000000000000000000000000000000000000000081526004016114e090612dee565b60405180910390fd5b600073ffffffffffffffffffffffffffffffffffffffff168160050160009054906101000a900473ffffffffffffffffffffffffffffffffffffffff1673ffffffffffffffffffffffffffffffffffffffff16146115c9578060050160009054906101000a900473ffffffffffffffffffffffffffffffffffffffff1673ffffffffffffffffffffffffffffffffffffffff166108fc6064606584600601546115929190612a02565b61159c9190612a73565b9081150290604051600060405180830381858888f193505050501580156115c7573d6000803e3d6000fd5b505b338160050160006101000a81548173ffffffffffffffffffffffffffffffffffffffff021916908373ffffffffffffffffffffffffffffffffffffffff160217905550606560643461161b9190612a02565b6116259190612a73565b81600601819055503373ffffffffffffffffffffffffffffffffffffffff16827f0e54eff26401bf69b81b26f60bd85ef47f5d85275c1d268d84f68d6897431c4760656064346116759190612a02565b61167f9190612a73565b60405161168c91906128cf565b60405180910390a35050565b600081116116db576040517f08c379a00000000000000000000000000000000000000000000000000000000081526004016116d290612e5a565b60405180910390fd5b6000831161171e576040517f08c379a000000000000000000000000000000000000000000000000000000000815260040161171590612ec6565b60405180910390fd5b8260025461172c9190612a02565b82101561176e576040517f08c379a000000000000000000000000000000000000000000000000000000000815260040161176590612f58565b60405180910390fd5b600160009054906101000a900473ffffffffffffffffffffffffffffffffffffffff1673ffffffffffffffffffffffffffffffffffffffff166323b872dd3330866040518463ffffffff1660e01b81526004016117cd93929190612f78565b6020604051808303816000875af11580156117ec573d6000803e3d6000fd5b505050506040513d601f19601f820116820180604052508101906118109190612af9565b61184f576040517f08c379a000000000000000000000000000000000000000000000000000000000815260040161184690612ffb565b60405180910390fd5b600042905060008282611862919061301b565b90506003600081548092919061187790612b26565b91905055506040518061010001604052803373ffffffffffffffffffffffffffffffffffffffff168152602001868152602001858152602001838152602001828152602001600073ffffffffffffffffffffffffffffffffffffffff168152602001600081526020016000151581525060046000600354815260200190815260200160002060008201518160000160006101000a81548173ffffffffffffffffffffffffffffffffffffffff021916908373ffffffffffffffffffffffffffffffffffffffff1602179055506020820151816001015560408201518160020155606082015181600301556080820151816004015560a08201518160050160006101000a81548173ffffffffffffffffffffffffffffffffffffffff021916908373ffffffffffffffffffffffffffffffffffffffff16021790555060c0820151816006015560e08201518160070160006101000a81548160ff0219169083151502179055509050503373ffffffffffffffffffffffffffffffffffffffff166003547f05f9bf100dd0ca9f37f08e0526690286d357ed7d6c5a4ac29730440b6e2dfd62878785604051611a2c9392919061304f565b60405180910390a35050505050565b606080600080600190505b6003548111611abd576004600082815260200190815260200160002060070160009054906101000a900460ff16158015611a96575060046000828152602001908152602001600020600401544211155b15611aaa578180611aa690612b26565b9250505b8080611ab590612b26565b915050611a46565b5060008167ffffffffffffffff811115611ada57611ad9612b6e565b5b604051908082528060200260200182016040528015611b085781602001602082028036833780820191505090505b50905060008267ffffffffffffffff811115611b2757611b26612b6e565b5b604051908082528060200260200182016040528015611b6057816020015b611b4d612365565b815260200190600190039081611b455790505b509050600080600190505b6003548111611d38576004600082815260200190815260200160002060070160009054906101000a900460ff16158015611bbb575060046000828152602001908152602001600020600401544211155b15611d255780848381518110611bd457611bd3612b9d565b5b60200260200101818152505060046000828152602001908152602001600020604051806101000160405290816000820160009054906101000a900473ffffffffffffffffffffffffffffffffffffffff1673ffffffffffffffffffffffffffffffffffffffff1673ffffffffffffffffffffffffffffffffffffffff168152602001600182015481526020016002820154815260200160038201548152602001600482015481526020016005820160009054906101000a900473ffffffffffffffffffffffffffffffffffffffff1673ffffffffffffffffffffffffffffffffffffffff1673ffffffffffffffffffffffffffffffffffffffff168152602001600682015481526020016007820160009054906101000a900460ff161515151581525050838381518110611d0b57611d0a612b9d565b5b60200260200101819052508180611d2190612b26565b9250505b8080611d3090612b26565b915050611b6b565b50828295509550505050509091565b60035481565b60006004600083815260200190815260200160002090508060000160009054906101000a900473ffffffffffffffffffffffffffffffffffffffff1673ffffffffffffffffffffffffffffffffffffffff163373ffffffffffffffffffffffffffffffffffffffff1614611df6576040517f08c379a0000000000000000000000000000000000000000000000000000000008152600401611ded906130d2565b60405180910390fd5b8060070160009054906101000a900460ff1615611e48576040517f08c379a0000000000000000000000000000000000000000000000000000000008152600401611e3f9061313e565b60405180910390fd5b60018160070160006101000a81548160ff021916908315150217905550600073ffffffffffffffffffffffffffffffffffffffff168160050160009054906101000a900473ffffffffffffffffffffffffffffffffffffffff1673ffffffffffffffffffffffffffffffffffffffff1614612012578060000160009054906101000a900473ffffffffffffffffffffffffffffffffffffffff1673ffffffffffffffffffffffffffffffffffffffff166108fc606460628460060154611f0e9190612a02565b611f189190612a73565b9081150290604051600060405180830381858888f19350505050158015611f43573d6000803e3d6000fd5b50600160009054906101000a900473ffffffffffffffffffffffffffffffffffffffff1673ffffffffffffffffffffffffffffffffffffffff1663a9059cbb8260050160009054906101000a900473ffffffffffffffffffffffffffffffffffffffff1683600101546040518363ffffffff1660e01b8152600401611fc9929190612aa4565b6020604051808303816000875af1158015611fe8573d6000803e3d6000fd5b505050506040513d601f19601f8201168201806040525081019061200c9190612af9565b506120dc565b600160009054906101000a900473ffffffffffffffffffffffffffffffffffffffff1673ffffffffffffffffffffffffffffffffffffffff1663a9059cbb8260000160009054906101000a900473ffffffffffffffffffffffffffffffffffffffff1683600101546040518363ffffffff1660e01b8152600401612097929190612aa4565b6020604051808303816000875af11580156120b6573d6000803e3d6000fd5b505050506040513d601f19601f820116820180604052508101906120da9190612af9565b505b8060050160009054906101000a900473ffffffffffffffffffffffffffffffffffffffff1673ffffffffffffffffffffffffffffffffffffffff168160000160009054906101000a900473ffffffffffffffffffffffffffffffffffffffff1673ffffffffffffffffffffffffffffffffffffffff16837f248b3e7715901cde8605780ccb8b9208d44cb7d923fc3de487406ea74cff6acf846006015460405161218691906128cf565b60405180910390a45050565b60025481565b6121a061221b565b600073ffffffffffffffffffffffffffffffffffffffff168173ffffffffffffffffffffffffffffffffffffffff160361220f576040517f08c379a0000000000000000000000000000000000000000000000000000000008152600401612206906131d0565b60405180910390fd5b61221881612299565b50565b61222361235d565b73ffffffffffffffffffffffffffffffffffffffff1661224161101b565b73ffffffffffffffffffffffffffffffffffffffff1614612297576040517f08c379a000000000000000000000000000000000000000000000000000000000815260040161228e9061323c565b60405180910390fd5b565b60008060009054906101000a900473ffffffffffffffffffffffffffffffffffffffff169050816000806101000a81548173ffffffffffffffffffffffffffffffffffffffff021916908373ffffffffffffffffffffffffffffffffffffffff1602179055508173ffffffffffffffffffffffffffffffffffffffff168173ffffffffffffffffffffffffffffffffffffffff167f8be0079c531659141344cd1fd0a4f28419497f9722a3daafe3b4186f6b6457e060405160405180910390a35050565b600033905090565b604051806101000160405280600073ffffffffffffffffffffffffffffffffffffffff16815260200160008152602001600081526020016000815260200160008152602001600073ffffffffffffffffffffffffffffffffffffffff168152602001600081526020016000151581525090565b600080fd5b6000819050919050565b6123f0816123dd565b81146123fb57600080fd5b50565b60008135905061240d816123e7565b92915050565b600060208284031215612429576124286123d8565b5b6000612437848285016123fe565b91505092915050565b600073ffffffffffffffffffffffffffffffffffffffff82169050919050565b600061246b82612440565b9050919050565b61247b81612460565b82525050565b61248a816123dd565b82525050565b60008115159050919050565b6124a581612490565b82525050565b6000610100820190506124c1600083018b612472565b6124ce602083018a612481565b6124db6040830189612481565b6124e86060830188612481565b6124f56080830187612481565b61250260a0830186612472565b61250f60c0830185612481565b61251c60e083018461249c565b9998505050505050505050565b61253281612460565b811461253d57600080fd5b50565b60008135905061254f81612529565b92915050565b60006020828403121561256b5761256a6123d8565b5b600061257984828501612540565b91505092915050565b600081519050919050565b600082825260208201905092915050565b6000819050602082019050919050565b6125b7816123dd565b82525050565b60006125c983836125ae565b60208301905092915050565b6000602082019050919050565b60006125ed82612582565b6125f7818561258d565b93506126028361259e565b8060005b8381101561263357815161261a88826125bd565b9750612625836125d5565b925050600181019050612606565b5085935050505092915050565b600081519050919050565b600082825260208201905092915050565b6000819050602082019050919050565b61267581612460565b82525050565b61268481612490565b82525050565b610100820160008201516126a1600085018261266c565b5060208201516126b460208501826125ae565b5060408201516126c760408501826125ae565b5060608201516126da60608501826125ae565b5060808201516126ed60808501826125ae565b5060a082015161270060a085018261266c565b5060c082015161271360c08501826125ae565b5060e082015161272660e085018261267b565b50505050565b6000612738838361268a565b6101008301905092915050565b6000602082019050919050565b600061275d82612640565b612767818561264b565b93506127728361265c565b8060005b838110156127a357815161278a888261272c565b975061279583612745565b925050600181019050612776565b5085935050505092915050565b600060408201905081810360008301526127ca81856125e2565b905081810360208301526127de8184612752565b90509392505050565b6000819050919050565b600061280c61280761280284612440565b6127e7565b612440565b9050919050565b600061281e826127f1565b9050919050565b600061283082612813565b9050919050565b61284081612825565b82525050565b600060208201905061285b6000830184612837565b92915050565b60006020820190506128766000830184612472565b92915050565b600080600060608486031215612895576128946123d8565b5b60006128a3868287016123fe565b93505060206128b4868287016123fe565b92505060406128c5868287016123fe565b9150509250925092565b60006020820190506128e46000830184612481565b92915050565b600082825260208201905092915050565b7f41756374696f6e206e6f7420656e646564207965740000000000000000000000600082015250565b60006129316015836128ea565b915061293c826128fb565b602082019050919050565b6000602082019050818103600083015261296081612924565b9050919050565b7f41756374696f6e20616c72656164792066696e616c697a656400000000000000600082015250565b600061299d6019836128ea565b91506129a882612967565b602082019050919050565b600060208201905081810360008301526129cc81612990565b9050919050565b7f4e487b7100000000000000000000000000000000000000000000000000000000600052601160045260246000fd5b6000612a0d826123dd565b9150612a18836123dd565b9250828202612a26816123dd565b91508282048414831517612a3d57612a3c6129d3565b5b5092915050565b7f4e487b7100000000000000000000000000000000000000000000000000000000600052601260045260246000fd5b6000612a7e826123dd565b9150612a89836123dd565b925082612a9957612a98612a44565b5b828204905092915050565b6000604082019050612ab96000830185612472565b612ac66020830184612481565b9392505050565b612ad681612490565b8114612ae157600080fd5b50565b600081519050612af381612acd565b92915050565b600060208284031215612b0f57612b0e6123d8565b5b6000612b1d84828501612ae4565b91505092915050565b6000612b31826123dd565b91507fffffffffffffffffffffffffffffffffffffffffffffffffffffffffffffffff8203612b6357612b626129d3565b5b600182019050919050565b7f4e487b7100000000000000000000000000000000000000000000000000000000600052604160045260246000fd5b7f4e487b7100000000000000000000000000000000000000000000000000000000600052603260045260246000fd5b7f4f6e6c792073656c6c65722063616e2063616e63656c00000000000000000000600082015250565b6000612c026016836128ea565b9150612c0d82612bcc565b602082019050919050565b60006020820190508181036000830152612c3181612bf5565b9050919050565b7f41756374696f6e2068617320656e646564000000000000000000000000000000600082015250565b6000612c6e6011836128ea565b9150612c7982612c38565b602082019050919050565b60006020820190508181036000830152612c9d81612c61565b9050919050565b7f41756374696f6e2069732066696e616c697a6564000000000000000000000000600082015250565b6000612cda6014836128ea565b9150612ce582612ca4565b602082019050919050565b60006020820190508181036000830152612d0981612ccd565b9050919050565b7f426964206d757374206578636565642062617365207072696365000000000000600082015250565b6000612d46601a836128ea565b9150612d5182612d10565b602082019050919050565b60006020820190508181036000830152612d7581612d39565b9050919050565b7f426964206d75737420626520686967686572207468616e2063757272656e742060008201527f6869676865737400000000000000000000000000000000000000000000000000602082015250565b6000612dd86027836128ea565b9150612de382612d7c565b604082019050919050565b60006020820190508181036000830152612e0781612dcb565b9050919050565b7f4475726174696f6e206d75737420626520706f73697469766500000000000000600082015250565b6000612e446019836128ea565b9150612e4f82612e0e565b602082019050919050565b60006020820190508181036000830152612e7381612e37565b9050919050565b7f546f6b656e20616d6f756e74206d75737420626520706f736974697665000000600082015250565b6000612eb0601d836128ea565b9150612ebb82612e7a565b602082019050919050565b60006020820190508181036000830152612edf81612ea3565b9050919050565b7f42617365207072696365206d757374206265203e3d206d696e696d756d20626960008201527f64207072696365202a20746f6b656e20616d6f756e7400000000000000000000602082015250565b6000612f426036836128ea565b9150612f4d82612ee6565b604082019050919050565b60006020820190508181036000830152612f7181612f35565b9050919050565b6000606082019050612f8d6000830186612472565b612f9a6020830185612472565b612fa76040830184612481565b949350505050565b7f546f6b656e207472616e73666572206661696c65640000000000000000000000600082015250565b6000612fe56015836128ea565b9150612ff082612faf565b602082019050919050565b6000602082019050818103600083015261301481612fd8565b9050919050565b6000613026826123dd565b9150613031836123dd565b9250828201905080821115613049576130486129d3565b5b92915050565b60006060820190506130646000830186612481565b6130716020830185612481565b61307e6040830184612481565b949350505050565b7f4f6e6c792073656c6c65722063616e2066696e616c697a650000000000000000600082015250565b60006130bc6018836128ea565b91506130c782613086565b602082019050919050565b600060208201905081810360008301526130eb816130af565b9050919050565b7f416c72656164792066696e616c697a6564000000000000000000000000000000600082015250565b60006131286011836128ea565b9150613133826130f2565b602082019050919050565b600060208201905081810360008301526131578161311b565b9050919050565b7f4f776e61626c653a206e6577206f776e657220697320746865207a65726f206160008201527f6464726573730000000000000000000000000000000000000000000000000000602082015250565b60006131ba6026836128ea565b91506131c58261315e565b604082019050919050565b600060208201905081810360008301526131e9816131ad565b9050919050565b7f4f776e61626c653a2063616c6c6572206973206e6f7420746865206f776e6572600082015250565b60006132266020836128ea565b9150613231826131f0565b602082019050919050565b6000602082019050818103600083015261325581613219565b905091905056fea2646970667358221220a9d4c1950dbe1ead05d78ddfafd843b1bc676d237095160baebd7d501d403e9b64736f6c63430008130033",
  "linkReferences": {},
  "deployedLinkReferences": {}
}