{
  "_format": "hh-sol-artifact-1",
  "contractName": "BiddingContract",
  "sourceName": "contracts/ppbid.sol",
  "abi": [
    {
      "inputs": [
        {
          "internalType": "address",
          "name": "_cctokenAddress",
          "type": "address"
        },
        {
          "internalType": "uint256",
          "name": "_minBidPricePerToken",
          "type": "uint256"
        }
      ],
      "stateMutability": "nonpayable",
      "type": "constructor"
    },
    {
      "anonymous": false,
      "inputs": [
        {
          "indexed": true,
          "internalType": "uint256",
          "name": "auctionId",
          "type": "uint256"
        }
      ],
      "name": "AuctionCancelled",
      "type": "event"
    },
    {
      "anonymous": false,
      "inputs": [
        {
          "indexed": true,
          "internalType": "uint256",
          "name": "auctionId",
          "type": "uint256"
        },
        {
          "indexed": true,
          "internalType": "address",
          "name": "seller",
          "type": "address"
        },
        {
          "indexed": false,
          "internalType": "uint256",
          "name": "tokenAmount",
          "type": "uint256"
        },
        {
          "indexed": false,
          "internalType": "uint256",
          "name": "basePrice",
          "type": "uint256"
        },
        {
          "indexed": false,
          "internalType": "uint256",
          "name": "endTime",
          "type": "uint256"
        }
      ],
      "name": "AuctionCreated",
      "type": "event"
    },
    {
      "anonymous": false,
      "inputs": [
        {
          "indexed": true,
          "internalType": "uint256",
          "name": "auctionId",
          "type": "uint256"
        },
        {
          "indexed": true,
          "internalType": "address",
          "name": "seller",
          "type": "address"
        },
        {
          "indexed": true,
          "internalType": "address",
          "name": "winner",
          "type": "address"
        },
        {
          "indexed": false,
          "internalType": "uint256",
          "name": "amount",
          "type": "uint256"
        }
      ],
      "name": "AuctionFinalized",
      "type": "event"
    },
    {
      "anonymous": false,
      "inputs": [
        {
          "indexed": true,
          "internalType": "uint256",
          "name": "auctionId",
          "type": "uint256"
        },
        {
          "indexed": true,
          "internalType": "address",
          "name": "bidder",
          "type": "address"
        },
        {
          "indexed": false,
          "internalType": "uint256",
          "name": "bidAmount",
          "type": "uint256"
        }
      ],
      "name": "BidPlaced",
      "type": "event"
    },
    {
      "anonymous": false,
      "inputs": [
        {
          "indexed": true,
          "internalType": "address",
          "name": "previousOwner",
          "type": "address"
        },
        {
          "indexed": true,
          "internalType": "address",
          "name": "newOwner",
          "type": "address"
        }
      ],
      "name": "OwnershipTransferred",
      "type": "event"
    },
    {
      "inputs": [],
      "name": "auctionIdCounter",
      "outputs": [
        {
          "internalType": "uint256",
          "name": "",
          "type": "uint256"
        }
      ],
      "stateMutability": "view",
      "type": "function"
    },
    {
      "inputs": [
        {
          "internalType": "uint256",
          "name": "",
          "type": "uint256"
        }
      ],
      "name": "auctions",
      "outputs": [
        {
          "internalType": "address",
          "name": "seller",
          "type": "address"
        },
        {
          "internalType": "uint256",
          "name": "tokenAmount",
          "type": "uint256"
        },
        {
          "internalType": "uint256",
          "name": "basePrice",
          "type": "uint256"
        },
        {
          "internalType": "uint256",
          "name": "startTime",
          "type": "uint256"
        },
        {
          "internalType": "uint256",
          "name": "endTime",
          "type": "uint256"
        },
        {
          "internalType": "address",
          "name": "highestBidder",
          "type": "address"
        },
        {
          "internalType": "uint256",
          "name": "highestBid",
          "type": "uint256"
        },
        {
          "internalType": "bool",
          "name": "isFinalized",
          "type": "bool"
        }
      ],
      "stateMutability": "view",
      "type": "function"
    },
    {
      "inputs": [
        {
          "internalType": "uint256",
          "name": "_auctionId",
          "type": "uint256"
        }
      ],
      "name": "cancelAuction",
      "outputs": [],
      "stateMutability": "nonpayable",
      "type": "function"
    },
    {
      "inputs": [
        {
          "internalType": "uint256",
          "name": "_auctionId",
          "type": "uint256"
        }
      ],
      "name": "checkAndFinalizeExpiredAuctions",
      "outputs": [],
      "stateMutability": "nonpayable",
      "type": "function"
    },
    {
      "inputs": [
        {
          "internalType": "uint256",
          "name": "_tokenAmount",
          "type": "uint256"
        },
        {
          "internalType": "uint256",
          "name": "_basePrice",
          "type": "uint256"
        }
      ],
      "name": "createAuction",
      "outputs": [],
      "stateMutability": "nonpayable",
      "type": "function"
    },
    {
      "inputs": [],
      "name": "dayStart",
      "outputs": [
        {
          "internalType": "uint256",
          "name": "",
          "type": "uint256"
        }
      ],
      "stateMutability": "view",
      "type": "function"
    },
    {
      "inputs": [],
      "name": "etoken",
      "outputs": [
        {
          "internalType": "contract EnergyToken",
          "name": "",
          "type": "address"
        }
      ],
      "stateMutability": "view",
      "type": "function"
    },
    {
      "inputs": [
        {
          "internalType": "uint256",
          "name": "_auctionId",
          "type": "uint256"
        }
      ],
      "name": "finalizeAuction",
      "outputs": [],
      "stateMutability": "nonpayable",
      "type": "function"
    },
    {
      "inputs": [],
      "name": "getActiveAuctions",
      "outputs": [
        {
          "internalType": "uint256[]",
          "name": "",
          "type": "uint256[]"
        },
        {
          "components": [
            {
              "internalType": "address",
              "name": "seller",
              "type": "address"
            },
            {
              "internalType": "uint256",
              "name": "tokenAmount",
              "type": "uint256"
            },
            {
              "internalType": "uint256",
              "name": "basePrice",
              "type": "uint256"
            },
            {
              "internalType": "uint256",
              "name": "startTime",
              "type": "uint256"
            },
            {
              "internalType": "uint256",
              "name": "endTime",
              "type": "uint256"
            },
            {
              "internalType": "address",
              "name": "highestBidder",
              "type": "address"
            },
            {
              "internalType": "uint256",
              "name": "highestBid",
              "type": "uint256"
            },
            {
              "internalType": "bool",
              "name": "isFinalized",
              "type": "bool"
            }
          ],
          "internalType": "struct BiddingContract.Auction[]",
          "name": "",
          "type": "tuple[]"
        }
      ],
      "stateMutability": "view",
      "type": "function"
    },
    {
      "inputs": [
        {
          "internalType": "address",
          "name": "bidder",
          "type": "address"
        }
      ],
      "name": "getAuctionsByHighestBidder",
      "outputs": [
        {
          "internalType": "uint256[]",
          "name": "",
          "type": "uint256[]"
        },
        {
          "components": [
            {
              "internalType": "address",
              "name": "seller",
              "type": "address"
            },
            {
              "internalType": "uint256",
              "name": "tokenAmount",
              "type": "uint256"
            },
            {
              "internalType": "uint256",
              "name": "basePrice",
              "type": "uint256"
            },
            {
              "internalType": "uint256",
              "name": "startTime",
              "type": "uint256"
            },
            {
              "internalType": "uint256",
              "name": "endTime",
              "type": "uint256"
            },
            {
              "internalType": "address",
              "name": "highestBidder",
              "type": "address"
            },
            {
              "internalType": "uint256",
              "name": "highestBid",
              "type": "uint256"
            },
            {
              "internalType": "bool",
              "name": "isFinalized",
              "type": "bool"
            }
          ],
          "internalType": "struct BiddingContract.Auction[]",
          "name": "",
          "type": "tuple[]"
        }
      ],
      "stateMutability": "view",
      "type": "function"
    },
    {
      "inputs": [
        {
          "internalType": "address",
          "name": "seller",
          "type": "address"
        }
      ],
      "name": "getAuctionsBySeller",
      "outputs": [
        {
          "internalType": "uint256[]",
          "name": "",
          "type": "uint256[]"
        },
        {
          "components": [
            {
              "internalType": "address",
              "name": "seller",
              "type": "address"
            },
            {
              "internalType": "uint256",
              "name": "tokenAmount",
              "type": "uint256"
            },
            {
              "internalType": "uint256",
              "name": "basePrice",
              "type": "uint256"
            },
            {
              "internalType": "uint256",
              "name": "startTime",
              "type": "uint256"
            },
            {
              "internalType": "uint256",
              "name": "endTime",
              "type": "uint256"
            },
            {
              "internalType": "address",
              "name": "highestBidder",
              "type": "address"
            },
            {
              "internalType": "uint256",
              "name": "highestBid",
              "type": "uint256"
            },
            {
              "internalType": "bool",
              "name": "isFinalized",
              "type": "bool"
            }
          ],
          "internalType": "struct BiddingContract.Auction[]",
          "name": "",
          "type": "tuple[]"
        }
      ],
      "stateMutability": "view",
      "type": "function"
    },
    {
      "inputs": [],
      "name": "minBidPricePerToken",
      "outputs": [
        {
          "internalType": "uint256",
          "name": "",
          "type": "uint256"
        }
      ],
      "stateMutability": "view",
      "type": "function"
    },
    {
      "inputs": [],
      "name": "owner",
      "outputs": [
        {
          "internalType": "address",
          "name": "",
          "type": "address"
        }
      ],
      "stateMutability": "view",
      "type": "function"
    },
    {
      "inputs": [
        {
          "internalType": "uint256",
          "name": "_auctionId",
          "type": "uint256"
        }
      ],
      "name": "placeBid",
      "outputs": [],
      "stateMutability": "payable",
      "type": "function"
    },
    {
      "inputs": [],
      "name": "renounceOwnership",
      "outputs": [],
      "stateMutability": "nonpayable",
      "type": "function"
    },
    {
      "inputs": [
        {
          "internalType": "uint256",
          "name": "_dayStart",
          "type": "uint256"
        }
      ],
      "name": "setDayStart",
      "outputs": [],
      "stateMutability": "nonpayable",
      "type": "function"
    },
    {
      "inputs": [
        {
          "internalType": "address",
          "name": "newOwner",
          "type": "address"
        }
      ],
      "name": "transferOwnership",
      "outputs": [],
      "stateMutability": "nonpayable",
      "type": "function"
    }
  ],
  "bytecode": "0x60806040523480156200001157600080fd5b506040516200357c3803806200357c833981810160405281019062000037919062000218565b620000576200004b620000a760201b60201c565b620000af60201b60201c565b81600160006101000a81548173ffffffffffffffffffffffffffffffffffffffff021916908373ffffffffffffffffffffffffffffffffffffffff1602179055508060028190555050506200025f565b600033905090565b60008060009054906101000a900473ffffffffffffffffffffffffffffffffffffffff169050816000806101000a81548173ffffffffffffffffffffffffffffffffffffffff021916908373ffffffffffffffffffffffffffffffffffffffff1602179055508173ffffffffffffffffffffffffffffffffffffffff168173ffffffffffffffffffffffffffffffffffffffff167f8be0079c531659141344cd1fd0a4f28419497f9722a3daafe3b4186f6b6457e060405160405180910390a35050565b600080fd5b600073ffffffffffffffffffffffffffffffffffffffff82169050919050565b6000620001a58262000178565b9050919050565b620001b78162000198565b8114620001c357600080fd5b50565b600081519050620001d781620001ac565b92915050565b6000819050919050565b620001f281620001dd565b8114620001fe57600080fd5b50565b6000815190506200021281620001e7565b92915050565b6000806040838503121562000232576200023162000173565b5b60006200024285828601620001c6565b9250506020620002558582860162000201565b9150509250929050565b61330d806200026f6000396000f3fe6080604052600436106100fe5760003560e01c80639638845d11610095578063cf44b5d511610064578063cf44b5d51461031b578063de0794ef14610347578063e808386314610372578063efba0ae51461039b578063f2fde38b146103c6576100fe565b80639638845d1461028057806396b5a755146102ab5780639979ef45146102d4578063b2f2b56c146102f0576100fe565b806375e90561116100d157806375e90561146101b05780637a128a9c146101ee5780638da5cb5b1461022c5780639529d69e14610257576100fe565b80630121683f146101035780632185ca041461012c578063571a26a014610155578063715018a614610199575b600080fd5b34801561010f57600080fd5b5061012a600480360381019061012591906124a1565b6103ef565b005b34801561013857600080fd5b50610153600480360381019061014e91906124e1565b610794565b005b34801561016157600080fd5b5061017c600480360381019061017791906124e1565b610b93565b604051610190989796959493929190612579565b60405180910390f35b3480156101a557600080fd5b506101ae610c28565b005b3480156101bc57600080fd5b506101d760048036038101906101d29190612623565b610c3c565b6040516101e592919061287e565b60405180910390f35b3480156101fa57600080fd5b5061021560048036038101906102109190612623565b611023565b60405161022392919061287e565b60405180910390f35b34801561023857600080fd5b5061024161140a565b60405161024e91906128b5565b60405180910390f35b34801561026357600080fd5b5061027e600480360381019061027991906124e1565b611433565b005b34801561028c57600080fd5b50610295611445565b6040516102a291906128d0565b60405180910390f35b3480156102b757600080fd5b506102d260048036038101906102cd91906124e1565b61144b565b005b6102ee60048036038101906102e991906124e1565b611789565b005b3480156102fc57600080fd5b50610305611a9d565b604051610312919061294a565b60405180910390f35b34801561032757600080fd5b50610330611ac3565b60405161033e92919061287e565b60405180910390f35b34801561035357600080fd5b5061035c611dcf565b60405161036991906128d0565b60405180910390f35b34801561037e57600080fd5b50610399600480360381019061039491906124e1565b611dd5565b005b3480156103a757600080fd5b506103b0612220565b6040516103bd91906128d0565b60405180910390f35b3480156103d257600080fd5b506103ed60048036038101906103e89190612623565b612226565b005b60008211610432576040517f08c379a0000000000000000000000000000000000000000000000000000000008152600401610429906129c2565b60405180910390fd5b816002546104409190612a11565b811015610482576040517f08c379a000000000000000000000000000000000000000000000000000000000815260040161047990612a9f565b60405180910390fd5b600160009054906101000a900473ffffffffffffffffffffffffffffffffffffffff1673ffffffffffffffffffffffffffffffffffffffff166323b872dd3330856040518463ffffffff1660e01b81526004016104e193929190612abf565b6020604051808303816000875af1158015610500573d6000803e3d6000fd5b505050506040513d601f19601f820116820180604052508101906105249190612b22565b610563576040517f08c379a000000000000000000000000000000000000000000000000000000000815260040161055a90612b9b565b60405180910390fd5b6000429050600061b6d060045461057a9190612bbb565b90508082106105be576040517f08c379a00000000000000000000000000000000000000000000000000000000081526004016105b590612c61565b60405180910390fd5b600360008154809291906105d190612c81565b91905055506040518061010001604052803373ffffffffffffffffffffffffffffffffffffffff168152602001858152602001848152602001838152602001828152602001600073ffffffffffffffffffffffffffffffffffffffff168152602001600081526020016000151581525060056000600354815260200190815260200160002060008201518160000160006101000a81548173ffffffffffffffffffffffffffffffffffffffff021916908373ffffffffffffffffffffffffffffffffffffffff1602179055506020820151816001015560408201518160020155606082015181600301556080820151816004015560a08201518160050160006101000a81548173ffffffffffffffffffffffffffffffffffffffff021916908373ffffffffffffffffffffffffffffffffffffffff16021790555060c0820151816006015560e08201518160070160006101000a81548160ff0219169083151502179055509050503373ffffffffffffffffffffffffffffffffffffffff166003547f05f9bf100dd0ca9f37f08e0526690286d357ed7d6c5a4ac29730440b6e2dfd6286868560405161078693929190612cc9565b60405180910390a350505050565b6000600560008381526020019081526020016000209050806004015442116107f1576040517f08c379a00000000000000000000000000000000000000000000000000000000081526004016107e890612d4c565b60405180910390fd5b8060070160009054906101000a900460ff1615610843576040517f08c379a000000000000000000000000000000000000000000000000000000000815260040161083a90612db8565b60405180910390fd5b60018160070160006101000a81548160ff021916908315150217905550600073ffffffffffffffffffffffffffffffffffffffff168160050160009054906101000a900473ffffffffffffffffffffffffffffffffffffffff1673ffffffffffffffffffffffffffffffffffffffff1614610a135760006064606283600601546108cd9190612a11565b6108d79190612e07565b90508160000160009054906101000a900473ffffffffffffffffffffffffffffffffffffffff1673ffffffffffffffffffffffffffffffffffffffff166108fc829081150290604051600060405180830381858888f19350505050158015610943573d6000803e3d6000fd5b50600160009054906101000a900473ffffffffffffffffffffffffffffffffffffffff1673ffffffffffffffffffffffffffffffffffffffff1663a9059cbb8360050160009054906101000a900473ffffffffffffffffffffffffffffffffffffffff1684600101546040518363ffffffff1660e01b81526004016109c9929190612e38565b6020604051808303816000875af11580156109e8573d6000803e3d6000fd5b505050506040513d601f19601f82011682018060405250810190610a0c9190612b22565b5050610add565b600160009054906101000a900473ffffffffffffffffffffffffffffffffffffffff1673ffffffffffffffffffffffffffffffffffffffff1663a9059cbb8260000160009054906101000a900473ffffffffffffffffffffffffffffffffffffffff1683600101546040518363ffffffff1660e01b8152600401610a98929190612e38565b6020604051808303816000875af1158015610ab7573d6000803e3d6000fd5b505050506040513d601f19601f82011682018060405250810190610adb9190612b22565b505b8060050160009054906101000a900473ffffffffffffffffffffffffffffffffffffffff1673ffffffffffffffffffffffffffffffffffffffff168160000160009054906101000a900473ffffffffffffffffffffffffffffffffffffffff1673ffffffffffffffffffffffffffffffffffffffff16837f248b3e7715901cde8605780ccb8b9208d44cb7d923fc3de487406ea74cff6acf8460060154604051610b8791906128d0565b60405180910390a45050565b60056020528060005260406000206000915090508060000160009054906101000a900473ffffffffffffffffffffffffffffffffffffffff16908060010154908060020154908060030154908060040154908060050160009054906101000a900473ffffffffffffffffffffffffffffffffffffffff16908060060154908060070160009054906101000a900460ff16905088565b610c306122a9565b610c3a6000612327565b565b606080600080600190505b6003548111610d2b578473ffffffffffffffffffffffffffffffffffffffff166005600083815260200190815260200160002060000160009054906101000a900473ffffffffffffffffffffffffffffffffffffffff1673ffffffffffffffffffffffffffffffffffffffff16148015610cd7575060056000828152602001908152602001600020600401544211155b8015610d0457506005600082815260200190815260200160002060070160009054906101000a900460ff16155b15610d18578180610d1490612c81565b9250505b8080610d2390612c81565b915050610c47565b5060008167ffffffffffffffff811115610d4857610d47612e61565b5b604051908082528060200260200182016040528015610d765781602001602082028036833780820191505090505b50905060008267ffffffffffffffff811115610d9557610d94612e61565b5b604051908082528060200260200182016040528015610dce57816020015b610dbb6123f3565b815260200190600190039081610db35790505b509050600080600190505b6003548111611013578773ffffffffffffffffffffffffffffffffffffffff166005600083815260200190815260200160002060000160009054906101000a900473ffffffffffffffffffffffffffffffffffffffff1673ffffffffffffffffffffffffffffffffffffffff16148015610e69575060056000828152602001908152602001600020600401544211155b8015610e9657506005600082815260200190815260200160002060070160009054906101000a900460ff16155b156110005780848381518110610eaf57610eae612e90565b5b60200260200101818152505060056000828152602001908152602001600020604051806101000160405290816000820160009054906101000a900473ffffffffffffffffffffffffffffffffffffffff1673ffffffffffffffffffffffffffffffffffffffff1673ffffffffffffffffffffffffffffffffffffffff168152602001600182015481526020016002820154815260200160038201548152602001600482015481526020016005820160009054906101000a900473ffffffffffffffffffffffffffffffffffffffff1673ffffffffffffffffffffffffffffffffffffffff1673ffffffffffffffffffffffffffffffffffffffff168152602001600682015481526020016007820160009054906101000a900460ff161515151581525050838381518110610fe657610fe5612e90565b5b60200260200101819052508180610ffc90612c81565b9250505b808061100b90612c81565b915050610dd9565b5082829550955050505050915091565b606080600080600190505b6003548111611112578473ffffffffffffffffffffffffffffffffffffffff166005600083815260200190815260200160002060050160009054906101000a900473ffffffffffffffffffffffffffffffffffffffff1673ffffffffffffffffffffffffffffffffffffffff161480156110be575060056000828152602001908152602001600020600401544211155b80156110eb57506005600082815260200190815260200160002060070160009054906101000a900460ff16155b156110ff5781806110fb90612c81565b9250505b808061110a90612c81565b91505061102e565b5060008167ffffffffffffffff81111561112f5761112e612e61565b5b60405190808252806020026020018201604052801561115d5781602001602082028036833780820191505090505b50905060008267ffffffffffffffff81111561117c5761117b612e61565b5b6040519080825280602002602001820160405280156111b557816020015b6111a26123f3565b81526020019060019003908161119a5790505b509050600080600190505b60035481116113fa578773ffffffffffffffffffffffffffffffffffffffff166005600083815260200190815260200160002060050160009054906101000a900473ffffffffffffffffffffffffffffffffffffffff1673ffffffffffffffffffffffffffffffffffffffff16148015611250575060056000828152602001908152602001600020600401544211155b801561127d57506005600082815260200190815260200160002060070160009054906101000a900460ff16155b156113e7578084838151811061129657611295612e90565b5b60200260200101818152505060056000828152602001908152602001600020604051806101000160405290816000820160009054906101000a900473ffffffffffffffffffffffffffffffffffffffff1673ffffffffffffffffffffffffffffffffffffffff1673ffffffffffffffffffffffffffffffffffffffff168152602001600182015481526020016002820154815260200160038201548152602001600482015481526020016005820160009054906101000a900473ffffffffffffffffffffffffffffffffffffffff1673ffffffffffffffffffffffffffffffffffffffff1673ffffffffffffffffffffffffffffffffffffffff168152602001600682015481526020016007820160009054906101000a900460ff1615151515815250508383815181106113cd576113cc612e90565b5b602002602001018190525081806113e390612c81565b9250505b80806113f290612c81565b9150506111c0565b5082829550955050505050915091565b60008060009054906101000a900473ffffffffffffffffffffffffffffffffffffffff16905090565b61143b6122a9565b8060048190555050565b60045481565b60006005600083815260200190815260200160002090508060000160009054906101000a900473ffffffffffffffffffffffffffffffffffffffff1673ffffffffffffffffffffffffffffffffffffffff163373ffffffffffffffffffffffffffffffffffffffff16146114f4576040517f08c379a00000000000000000000000000000000000000000000000000000000081526004016114eb90612f0b565b60405180910390fd5b8060040154421161153a576040517f08c379a000000000000000000000000000000000000000000000000000000000815260040161153190612d4c565b60405180910390fd5b8060070160009054906101000a900460ff161561158c576040517f08c379a000000000000000000000000000000000000000000000000000000000815260040161158390612f77565b60405180910390fd5b60018160070160006101000a81548160ff021916908315150217905550600160009054906101000a900473ffffffffffffffffffffffffffffffffffffffff1673ffffffffffffffffffffffffffffffffffffffff1663a9059cbb8260000160009054906101000a900473ffffffffffffffffffffffffffffffffffffffff1683600101546040518363ffffffff1660e01b815260040161162e929190612e38565b6020604051808303816000875af115801561164d573d6000803e3d6000fd5b505050506040513d601f19601f820116820180604052508101906116719190612b22565b50600073ffffffffffffffffffffffffffffffffffffffff168160050160009054906101000a900473ffffffffffffffffffffffffffffffffffffffff1673ffffffffffffffffffffffffffffffffffffffff16146117585760006064606583600601546116df9190612a11565b6116e99190612e07565b90508160050160009054906101000a900473ffffffffffffffffffffffffffffffffffffffff1673ffffffffffffffffffffffffffffffffffffffff166108fc829081150290604051600060405180830381858888f19350505050158015611755573d6000803e3d6000fd5b50505b817f2809c7e17bf978fbc7194c0a694b638c4215e9140cacc6c38ca36010b45697df60405160405180910390a25050565b600060056000838152602001908152602001600020905080600401544211156117e7576040517f08c379a00000000000000000000000000000000000000000000000000000000081526004016117de90612fe3565b60405180910390fd5b8060070160009054906101000a900460ff1615611839576040517f08c379a00000000000000000000000000000000000000000000000000000000081526004016118309061304f565b60405180910390fd5b600060646065836002015461184e9190612a11565b6118589190612e07565b90508034101561189d576040517f08c379a0000000000000000000000000000000000000000000000000000000008152600401611894906130bb565b60405180910390fd5b60006064606584600601546118b29190612a11565b6118bc9190612e07565b9050803411611900576040517f08c379a00000000000000000000000000000000000000000000000000000000081526004016118f79061314d565b60405180910390fd5b600073ffffffffffffffffffffffffffffffffffffffff168360050160009054906101000a900473ffffffffffffffffffffffffffffffffffffffff1673ffffffffffffffffffffffffffffffffffffffff16146119e0578260050160009054906101000a900473ffffffffffffffffffffffffffffffffffffffff1673ffffffffffffffffffffffffffffffffffffffff166108fc6064606586600601546119a99190612a11565b6119b39190612e07565b9081150290604051600060405180830381858888f193505050501580156119de573d6000803e3d6000fd5b505b338360050160006101000a81548173ffffffffffffffffffffffffffffffffffffffff021916908373ffffffffffffffffffffffffffffffffffffffff1602179055506065606434611a329190612a11565b611a3c9190612e07565b83600601819055503373ffffffffffffffffffffffffffffffffffffffff16847f0e54eff26401bf69b81b26f60bd85ef47f5d85275c1d268d84f68d6897431c478560060154604051611a8f91906128d0565b60405180910390a350505050565b600160009054906101000a900473ffffffffffffffffffffffffffffffffffffffff1681565b606080600080600190505b6003548111611b45576005600082815260200190815260200160002060070160009054906101000a900460ff16158015611b1e575060056000828152602001908152602001600020600401544211155b15611b32578180611b2e90612c81565b9250505b8080611b3d90612c81565b915050611ace565b5060008167ffffffffffffffff811115611b6257611b61612e61565b5b604051908082528060200260200182016040528015611b905781602001602082028036833780820191505090505b50905060008267ffffffffffffffff811115611baf57611bae612e61565b5b604051908082528060200260200182016040528015611be857816020015b611bd56123f3565b815260200190600190039081611bcd5790505b509050600080600190505b6003548111611dc0576005600082815260200190815260200160002060070160009054906101000a900460ff16158015611c43575060056000828152602001908152602001600020600401544211155b15611dad5780848381518110611c5c57611c5b612e90565b5b60200260200101818152505060056000828152602001908152602001600020604051806101000160405290816000820160009054906101000a900473ffffffffffffffffffffffffffffffffffffffff1673ffffffffffffffffffffffffffffffffffffffff1673ffffffffffffffffffffffffffffffffffffffff168152602001600182015481526020016002820154815260200160038201548152602001600482015481526020016005820160009054906101000a900473ffffffffffffffffffffffffffffffffffffffff1673ffffffffffffffffffffffffffffffffffffffff1673ffffffffffffffffffffffffffffffffffffffff168152602001600682015481526020016007820160009054906101000a900460ff161515151581525050838381518110611d9357611d92612e90565b5b60200260200101819052508180611da990612c81565b9250505b8080611db890612c81565b915050611bf3565b50828295509550505050509091565b60035481565b60006005600083815260200190815260200160002090508060000160009054906101000a900473ffffffffffffffffffffffffffffffffffffffff1673ffffffffffffffffffffffffffffffffffffffff163373ffffffffffffffffffffffffffffffffffffffff1614611e7e576040517f08c379a0000000000000000000000000000000000000000000000000000000008152600401611e75906131b9565b60405180910390fd5b8060070160009054906101000a900460ff1615611ed0576040517f08c379a0000000000000000000000000000000000000000000000000000000008152600401611ec790612db8565b60405180910390fd5b60018160070160006101000a81548160ff021916908315150217905550600073ffffffffffffffffffffffffffffffffffffffff168160050160009054906101000a900473ffffffffffffffffffffffffffffffffffffffff1673ffffffffffffffffffffffffffffffffffffffff16146120a0576000606460628360060154611f5a9190612a11565b611f649190612e07565b90508160000160009054906101000a900473ffffffffffffffffffffffffffffffffffffffff1673ffffffffffffffffffffffffffffffffffffffff166108fc829081150290604051600060405180830381858888f19350505050158015611fd0573d6000803e3d6000fd5b50600160009054906101000a900473ffffffffffffffffffffffffffffffffffffffff1673ffffffffffffffffffffffffffffffffffffffff1663a9059cbb8360050160009054906101000a900473ffffffffffffffffffffffffffffffffffffffff1684600101546040518363ffffffff1660e01b8152600401612056929190612e38565b6020604051808303816000875af1158015612075573d6000803e3d6000fd5b505050506040513d601f19601f820116820180604052508101906120999190612b22565b505061216a565b600160009054906101000a900473ffffffffffffffffffffffffffffffffffffffff1673ffffffffffffffffffffffffffffffffffffffff1663a9059cbb8260000160009054906101000a900473ffffffffffffffffffffffffffffffffffffffff1683600101546040518363ffffffff1660e01b8152600401612125929190612e38565b6020604051808303816000875af1158015612144573d6000803e3d6000fd5b505050506040513d601f19601f820116820180604052508101906121689190612b22565b505b8060050160009054906101000a900473ffffffffffffffffffffffffffffffffffffffff1673ffffffffffffffffffffffffffffffffffffffff168160000160009054906101000a900473ffffffffffffffffffffffffffffffffffffffff1673ffffffffffffffffffffffffffffffffffffffff16837f248b3e7715901cde8605780ccb8b9208d44cb7d923fc3de487406ea74cff6acf846006015460405161221491906128d0565b60405180910390a45050565b60025481565b61222e6122a9565b600073ffffffffffffffffffffffffffffffffffffffff168173ffffffffffffffffffffffffffffffffffffffff160361229d576040517f08c379a00000000000000000000000000000000000000000000000000000000081526004016122949061324b565b60405180910390fd5b6122a681612327565b50565b6122b16123eb565b73ffffffffffffffffffffffffffffffffffffffff166122cf61140a565b73ffffffffffffffffffffffffffffffffffffffff1614612325576040517f08c379a000000000000000000000000000000000000000000000000000000000815260040161231c906132b7565b60405180910390fd5b565b60008060009054906101000a900473ffffffffffffffffffffffffffffffffffffffff169050816000806101000a81548173ffffffffffffffffffffffffffffffffffffffff021916908373ffffffffffffffffffffffffffffffffffffffff1602179055508173ffffffffffffffffffffffffffffffffffffffff168173ffffffffffffffffffffffffffffffffffffffff167f8be0079c531659141344cd1fd0a4f28419497f9722a3daafe3b4186f6b6457e060405160405180910390a35050565b600033905090565b604051806101000160405280600073ffffffffffffffffffffffffffffffffffffffff16815260200160008152602001600081526020016000815260200160008152602001600073ffffffffffffffffffffffffffffffffffffffff168152602001600081526020016000151581525090565b600080fd5b6000819050919050565b61247e8161246b565b811461248957600080fd5b50565b60008135905061249b81612475565b92915050565b600080604083850312156124b8576124b7612466565b5b60006124c68582860161248c565b92505060206124d78582860161248c565b9150509250929050565b6000602082840312156124f7576124f6612466565b5b60006125058482850161248c565b91505092915050565b600073ffffffffffffffffffffffffffffffffffffffff82169050919050565b60006125398261250e565b9050919050565b6125498161252e565b82525050565b6125588161246b565b82525050565b60008115159050919050565b6125738161255e565b82525050565b60006101008201905061258f600083018b612540565b61259c602083018a61254f565b6125a9604083018961254f565b6125b6606083018861254f565b6125c3608083018761254f565b6125d060a0830186612540565b6125dd60c083018561254f565b6125ea60e083018461256a565b9998505050505050505050565b6126008161252e565b811461260b57600080fd5b50565b60008135905061261d816125f7565b92915050565b60006020828403121561263957612638612466565b5b60006126478482850161260e565b91505092915050565b600081519050919050565b600082825260208201905092915050565b6000819050602082019050919050565b6126858161246b565b82525050565b6000612697838361267c565b60208301905092915050565b6000602082019050919050565b60006126bb82612650565b6126c5818561265b565b93506126d08361266c565b8060005b838110156127015781516126e8888261268b565b97506126f3836126a3565b9250506001810190506126d4565b5085935050505092915050565b600081519050919050565b600082825260208201905092915050565b6000819050602082019050919050565b6127438161252e565b82525050565b6127528161255e565b82525050565b6101008201600082015161276f600085018261273a565b506020820151612782602085018261267c565b506040820151612795604085018261267c565b5060608201516127a8606085018261267c565b5060808201516127bb608085018261267c565b5060a08201516127ce60a085018261273a565b5060c08201516127e160c085018261267c565b5060e08201516127f460e0850182612749565b50505050565b60006128068383612758565b6101008301905092915050565b6000602082019050919050565b600061282b8261270e565b6128358185612719565b93506128408361272a565b8060005b8381101561287157815161285888826127fa565b975061286383612813565b925050600181019050612844565b5085935050505092915050565b6000604082019050818103600083015261289881856126b0565b905081810360208301526128ac8184612820565b90509392505050565b60006020820190506128ca6000830184612540565b92915050565b60006020820190506128e5600083018461254f565b92915050565b6000819050919050565b600061291061290b6129068461250e565b6128eb565b61250e565b9050919050565b6000612922826128f5565b9050919050565b600061293482612917565b9050919050565b61294481612929565b82525050565b600060208201905061295f600083018461293b565b92915050565b600082825260208201905092915050565b7f546f6b656e20616d6f756e74206d75737420626520706f736974697665000000600082015250565b60006129ac601d83612965565b91506129b782612976565b602082019050919050565b600060208201905081810360008301526129db8161299f565b9050919050565b7f4e487b7100000000000000000000000000000000000000000000000000000000600052601160045260246000fd5b6000612a1c8261246b565b9150612a278361246b565b9250828202612a358161246b565b91508282048414831517612a4c57612a4b6129e2565b5b5092915050565b7f42617365207072696365206d757374206265203e3d206d696e696d756d000000600082015250565b6000612a89601d83612965565b9150612a9482612a53565b602082019050919050565b60006020820190508181036000830152612ab881612a7c565b9050919050565b6000606082019050612ad46000830186612540565b612ae16020830185612540565b612aee604083018461254f565b949350505050565b612aff8161255e565b8114612b0a57600080fd5b50565b600081519050612b1c81612af6565b92915050565b600060208284031215612b3857612b37612466565b5b6000612b4684828501612b0d565b91505092915050565b7f546f6b656e207472616e73666572206661696c65640000000000000000000000600082015250565b6000612b85601583612965565b9150612b9082612b4f565b602082019050919050565b60006020820190508181036000830152612bb481612b78565b9050919050565b6000612bc68261246b565b9150612bd18361246b565b9250828201905080821115612be957612be86129e2565b5b92915050565b7f49742069732070617374203120504d3b2063616e6e6f7420637265617465206160008201527f206e65772061756374696f6e20746f6461792e00000000000000000000000000602082015250565b6000612c4b603383612965565b9150612c5682612bef565b604082019050919050565b60006020820190508181036000830152612c7a81612c3e565b9050919050565b6000612c8c8261246b565b91507fffffffffffffffffffffffffffffffffffffffffffffffffffffffffffffffff8203612cbe57612cbd6129e2565b5b600182019050919050565b6000606082019050612cde600083018661254f565b612ceb602083018561254f565b612cf8604083018461254f565b949350505050565b7f41756374696f6e206e6f7420656e646564207965740000000000000000000000600082015250565b6000612d36601583612965565b9150612d4182612d00565b602082019050919050565b60006020820190508181036000830152612d6581612d29565b9050919050565b7f416c72656164792066696e616c697a6564000000000000000000000000000000600082015250565b6000612da2601183612965565b9150612dad82612d6c565b602082019050919050565b60006020820190508181036000830152612dd181612d95565b9050919050565b7f4e487b7100000000000000000000000000000000000000000000000000000000600052601260045260246000fd5b6000612e128261246b565b9150612e1d8361246b565b925082612e2d57612e2c612dd8565b5b828204905092915050565b6000604082019050612e4d6000830185612540565b612e5a602083018461254f565b9392505050565b7f4e487b7100000000000000000000000000000000000000000000000000000000600052604160045260246000fd5b7f4e487b7100000000000000000000000000000000000000000000000000000000600052603260045260246000fd5b7f4f6e6c792073656c6c65722063616e2063616e63656c00000000000000000000600082015250565b6000612ef5601683612965565b9150612f0082612ebf565b602082019050919050565b60006020820190508181036000830152612f2481612ee8565b9050919050565b7f41756374696f6e20616c72656164792066696e616c697a656400000000000000600082015250565b6000612f61601983612965565b9150612f6c82612f2b565b602082019050919050565b60006020820190508181036000830152612f9081612f54565b9050919050565b7f41756374696f6e2068617320656e646564000000000000000000000000000000600082015250565b6000612fcd601183612965565b9150612fd882612f97565b602082019050919050565b60006020820190508181036000830152612ffc81612fc0565b9050919050565b7f41756374696f6e2069732066696e616c697a6564000000000000000000000000600082015250565b6000613039601483612965565b915061304482613003565b602082019050919050565b600060208201905081810360008301526130688161302c565b9050919050565b7f426964206e6f742031252061626f766520626173652070726963650000000000600082015250565b60006130a5601b83612965565b91506130b08261306f565b602082019050919050565b600060208201905081810360008301526130d481613098565b9050919050565b7f426964206e6f742031252061626f76652070726576696f75732068696768657360008201527f7400000000000000000000000000000000000000000000000000000000000000602082015250565b6000613137602183612965565b9150613142826130db565b604082019050919050565b600060208201905081810360008301526131668161312a565b9050919050565b7f4f6e6c792073656c6c65722063616e2066696e616c697a650000000000000000600082015250565b60006131a3601883612965565b91506131ae8261316d565b602082019050919050565b600060208201905081810360008301526131d281613196565b9050919050565b7f4f776e61626c653a206e6577206f776e657220697320746865207a65726f206160008201527f6464726573730000000000000000000000000000000000000000000000000000602082015250565b6000613235602683612965565b9150613240826131d9565b604082019050919050565b6000602082019050818103600083015261326481613228565b9050919050565b7f4f776e61626c653a2063616c6c6572206973206e6f7420746865206f776e6572600082015250565b60006132a1602083612965565b91506132ac8261326b565b602082019050919050565b600060208201905081810360008301526132d081613294565b905091905056fea2646970667358221220e5acea4354b781e0ee90c45e5ffc39a38a016c31e73a7795c313fce8b6cd0aa964736f6c63430008130033",
  "linkReferences": {},
  "deployedLinkReferences": {}
}